:100000000C9410010C9475080C942D010C942D0186
:100010000C942D010C942D010C942D010C942D01A8
:100020000C942D010C942D010C942D010C942D0198
:100030000C942D010C942D010C9416080C94490875
:100040000C94ED030C942D010C942D010C942D01B6
:100050000C942D010C942F010C942D010C942D0166
:100060000C942D010C942D017807860786078607CE
:10007000860786078607860786078607860782071C
:1000800086077D077307860738063D064206470642
:100090004C06510656065B0660066506860786070F
:1000A00086076A068607860786076F06740679063E
:1000B0007E06830688068D06920697069C06A10694
:1000C000A606AB06B006B506BA06BF06C406C90644
:1000D000CE06D306D806DD06E206E706EC0686075E
:1000E00086078607860786078607F106F606FB065B
:1000F000000705070A070F07140719071E0723073C
:1001000028072D07320737073C07410746074B07EB
:10011000500755075A075F07640769076E076E6146
:100120006E00696E660000407A10F35A00A0724EAD
:1001300018090010A5D4E80000E87648170000E48C
:100140000B54020000CA9A3B000000E1F5050000D4
:1001500080969800000040420F000000A086010039
:100160000000102700000000E80300000000640009
:10017000000000000A000000000001000000000074
:100180002C76D888DC674F0823DFC1DFAE59E1B198
:10019000B796E5E3E453C63AE651997696E8E6C2A7
:1001A0008426EB898C9B62ED407C6FFCEFBC9C9FAE
:1001B00040F2BAA56FA5F490055A2AF75C936B6CD0
:1001C000F9676DC11BFCE0E40D47FEF520E6B500C4
:1001D000D0ED902E0300943577050080841E080032
:1001E00000204E0A000000C80C333333330F986EE2
:1001F00012831141EF8D2114893BE65516CFFEE69F
:10020000DB18D1844B381BF77C1D901DA4BBE42464
:10021000203284725E228100C9F124ECA1E53D27E1
:1002200011241FBECFEFD8E0DEBFCDBF12E0A0E0AB
:10023000B1E0EAEBFEE102C005900D92A63EB107E7
:10024000D9F723E0A6EEB2E001C01D92AE39B207A5
:10025000E1F70E9404040C945B0F0C9400001F92C1
:100260000F920FB60F9211242F938F939F9380912B
:1002700078008093E602209179002093E70290E0D5
:10028000922B90932F0380932E039F918F912F9108
:100290000F900FBE0F901F901895EAE7F0E0808155
:1002A00087688083ECE7F0E0808183648083089531
:1002B000EAE7F0E0808180648083808186FDFDCF65
:1002C0008091780090917900089514BC85E085BDF7
:1002D00081E080936E00089527E030E080E061E0E7
:1002E00070E0309BFECF90EA9A95F1F7309B08C002
:1002F000AB01022E02C0440F551F0A94E2F7842B73
:100300003099FECF2150310960F708950F931F9364
:10031000CF93DF93E3E3F3E010821282389A4098A0
:100320002FEF89EF90E0215080409040E1F700C02E
:100330000000409A20EA2A95F1F7389885E08A95DE
:10034000F1F7000086B181708093380381111DC0E0
:100350008FE391E00197F1F700C0000086B1817052
:1003600080933803882389F08FE391E00197F1F7B8
:1003700000C00000EF0108E313E00E946C018993C4
:10038000C017D107D1F7389A409ADF91CF911F91CA
:100390000F91089580913503089580913303089556
:1003A000F894399A83E997E00197F1F700C00000CB
:1003B0003998EFE8F1E03197F1F700C0000086B11D
:1003C000E3E0F6E03197F1F700C000008695817018
:1003D00091E089270895F894399A9AE09A95F1F76F
:1003E00000C08111399887EF90E00197F1F700C0C4
:1003F000000039980895EF92FF920F931F93CF93C7
:10040000DF93C0E0D0E0EE24E394F12C082F10E05D
:1004100097010C2E02C0220F331F0A94E2F7A801A5
:10042000422353232417350721F481E00E94EB0176
:1004300003C080E00E94EB012196C830D10541F74E
:10044000DF91CF911F910F91FF90EF900895F89455
:10045000399A8AE08A95F1F700C03998E5E3EA9580
:10046000F1F7000086B1EFECF0E03197F1F700C052
:1004700000008695817008951F93CF93DF93C0E0AD
:10048000D0E010E00E94270290E00C2E02C0880FFE
:10049000991F0A94E2F7182B2196C830D10591F7DD
:1004A000812FDF91CF911F910895BF92CF92DF925C
:1004B000EF92FF920F931F93CF93DF93B82EC92E25
:1004C00080914203811105C00E94D00180EF0E94FB
:1004D000FB01D1E010E0E12C01E0FF24F394D12CEA
:1004E0000E942702C82F0E942702C13009F054C081
:1004F0008130E1F438C080914303081750F4E12FB4
:10050000F0E0E75CFC4F80818D23CF2D29F4CD2DC9
:1005100003C0CF2D0813CD2DC11106C0093008F03E
:100520003EC0009341033BC0C13049F4E12FF0E0ED
:10053000E75CFC4F80818D2B8083CF2D09C0E12F9C
:10054000F0E0E75CFC4F90818D2F809589238083BC
:100550008C2F0E94EB010F5FDD0F11F41F5FD1E0C4
:10056000183008F4BDCF013440F0E0924303E110AD
:1005700018C081E08093420314C01092430310928C
:1005800042031092410380E017C081918D932E1792
:100590003F07D9F781E010C0C813D1CFACCFE02E10
:1005A000CECF80913903882341F3E9E3F3E0AB2D0B
:1005B000BC2D21E433E0E9CFDF91CF911F910F9162
:1005C000FF90EF90DF90CF90BF900895CF92DF9291
:1005D000EF92FF920F931F93CF93DF93CDB7DEB7C8
:1005E00028970FB6F894DEBF0FBECDBF811116C09D
:1005F0000E94D001882309F467C08CEC0E94FB01A3
:100600008EE40E94FB0184E60E94FB018EE10E94C1
:10061000FB018FE70E94FB0180E059C008E010E079
:10062000CE0101960E945502811105C080914603BA
:1006300081111AC04CC0A0914603AF5FA09346033E
:10064000B0E0AA0FBB1FAA0FBB1FAA0FBB1FAC5164
:10065000BD4F88E0FE01319601900D928A95E1F739
:1006600001501109E9F6E2CF0CEE12E0CC24C3945C
:10067000D12C0E94D001882349F185E50E94FB011D
:10068000780188E0E80EF11CF80181918F010E9449
:10069000FB010E151F05C1F78EE40E94FB018EE1E0
:1006A0000E94FB0184E10E94FB018FE70E94FB0195
:1006B000FFEFCF1ADF0A87018091460390E08C1587
:1006C0009D05BCF680E003C081E001C081E0289672
:1006D0000FB6F894DEBF0FBECDBFDF91CF911F9153
:1006E0000F91FF90EF90DF90CF9008950F931F939D
:1006F000CF93DF93C82F062F0E94D001C11104C0F1
:100700008CEC0E94FB011BC085E50E94FB0110E000
:10071000E801CC0FDD1FCC0FDD1FCC0FDD1FCC514E
:10072000DD4F000F111F000F111F000F111F04518B
:100730001D4F89910E94FB01C017D107D1F784E4B6
:100740000E94FB01DF91CF911F910F910895EF92CD
:10075000FF920F931F93CF93DF93C82F8B01E42E4B
:100760000E94D001C11104C08CEC0E94FB011EC08C
:1007700085E50E94FB01F12CE701CC0FDD1FCC0FBA
:10078000DD1FCC0FDD1FCC51DD4FC701880F991F36
:10079000880F991F880F991F9C0124513D4F7901A3
:1007A00089910E94FB01CE15DF05D1F78EEB0E94E7
:1007B000FB01E801075F1F4F0E943C028993C017AD
:1007C000D107D1F7DF91CF911F910F91FF90EF905B
:1007D000089593FB882780F908951F920F920FB612
:1007E0000F9211248F939F9380914403909145031E
:1007F000019690934503809344039F918F910F90AE
:100800000FBE0F901F901895259A10922F031092EB
:100810002E030E9465010E94DE050E944D010E9488
:10082000C20881E00E94E6020F2EF2E9EF2EF2E00C
:10083000FF2EF02DC8E4D3E00F2EFAE98F2EF2E060
:100840009F2EF02D0F2EF9E72F2EF02D0F2EF8E909
:10085000AF2EF3E0BF2EF02D0F2EF0E9CF2EF3E0F8
:10086000DF2EF02D78940E94C6058091440390916C
:1008700045038C32914040F42D988091440390912F
:100880004503892B39F40BC02D9A10924503109221
:10089000440305C080914603811106C094C060E006
:1008A00080E00E9476038FC077247394472D68E818
:1008B00073E081E00E94A703E8E8F3E0018110E023
:1008C000102F00278081082BC8010E94E9038111A5
:1008D00005C00F2EFBE26F2EF02D04C00F2EFDE29F
:1008E0006F2EF02D1F70129502950F7001271F704B
:1008F000012781E0781209C063E089EB0E94A60518
:1009000063E084E10E94A6051CC093E079120BC04D
:1009100063E08AEB0E94A60563E084E10E94A605DD
:10092000552453941FC0E5E07E120BC063E08BEBAF
:100930000E94A60563E084E10E94A6055524539415
:1009400011C0872D8B7F823019F0F4E07F1208C030
:1009500062E085E20E94A6056894552451F802C021
:10096000552453941F930F931F926F921F927F925F
:10097000FF92EF92DF93CF930E94DB0EEDB7FEB7AD
:100980003A960FB6F894FEBF0FBEEDBF10E009C057
:10099000E12FF0E0E85BFC4F652D80810E942D0681
:1009A0001F5FFE0101900020E9F73197E854F34002
:1009B000812F90E08E179F0758F373948091460320
:1009C000871508F073CF0E94580190932F038093EE
:1009D0002E03BC016255710980E090E00E94E60898
:1009E00020E03DEA42E751E40E9474096093E80286
:1009F0007093E9028093EA029093EB020E948601D1
:100A000040904403309045030091E8027090E90261
:100A10006090EA025090EB020E94CD01182F0E94D4
:100A2000CA013F924F925F926F927F920F931F92F3
:100A30001F9390E003969F938F939F928F92DF93E3
:100A4000CF930E94DB0E60E0CE010E9487071F92C9
:100A50002F921F921F921F921F921F921F921F92FE
:100A60001F921F921F921F9286E88F931F9281E020
:100A70008F931F929FEF9F93E6EBF2E0FF93EF932C
:100A8000DF93CF930E94DB0EEDB7FEB7B4960FB69F
:100A9000F894FEBF0FBEEDBF10E008C0E12FF0E0FC
:100AA000E85BFC4F80810E949D081F5FFE01019062
:100AB0000020E9F73197E854F340812F90E08E173A
:100AC0009F0760F300E913E0C8010E94AD080F5FC3
:100AD0001F4FA016B106C1F7F60180851F928F93B4
:100AE00087811F928F9386811F928F9385811F929A
:100AF0008F9384811F928F9383811F928F93828122
:100B00001F928F9381811F928F9380811F928F9369
:100B100089EC92E09F938F93DF93CF930E94C50E51
:100B200062E0CE010E9487078FEF9BE7E2E98150E8
:100B30009040E040E1F700C000008DB79EB74696B8
:100B40000FB6F8949EBF0FBE8DBF8CCEF8949FEF6A
:100B50009AB98BB92A9860FD289A61FD299A85B1C6
:100B60008C7F85B91BB81AB878940895F8949FEFD4
:100B70009AB98BB92A9A60FD289A61FD299A85B1A4
:100B80008C7F85B91BB81AB878940895CF93DF93FA
:100B9000D8EB63E08D2F0E94A60563E083E10E94FD
:100BA000A605CDE363E080E00E94B605C150D1F711
:100BB000DF5FDC3B71F7DF91CF9108958AB18FEF52
:100BC0008AB99BB18BB984B1876084B985B18760DC
:100BD00085B92A9A85B1876085B92A9A85B18760D7
:100BE00085B985B185B963E082EE0E94A60563E010
:100BF00089EA0E94A60563E084EA0E94A60563E0F4
:100C000081EA0E94A60563E08FEA0E94A6050E9481
:100C1000C60563E088EB0E94A60563E083E10E94BD
:100C2000A60563E08FED0E94A6050895FF920F933D
:100C30001F93CF93DF93F62EEC018C010A5F1F4FB9
:100C40006F2D89910E94B605C017D107C9F7DF91B2
:100C5000CF911F910F91FF90089590E0FC01B09704
:100C6000EB35F10508F052C1EC5CFF4F0C945E0DC2
:100C700080E091E00E941606089586E091E00E94CF
:100C8000160608958CE091E00E941606089582E110
:100C900091E00E941606089588E191E00E941606F0
:100CA00008958EE191E00E941606089584E291E095
:100CB0000E94160608958AE291E00E9416060895A1
:100CC00080E391E00E941606089586E391E00E9479
:100CD000160608958CE391E00E941606089582E4BA
:100CE00091E00E941606089588E491E00E9416069D
:100CF00008958EE491E00E941606089584E591E03F
:100D00000E94160608958AE591E00E94160608954D
:100D100080E691E00E941606089586E691E00E9422
:100D2000160608958CE691E00E941606089582E763
:100D300091E00E941606089588E791E00E94160649
:100D400008958EE791E00E941606089584E891E0E8
:100D50000E94160608958AE891E00E9416060895FA
:100D600080E991E00E941606089586E991E00E94CC
:100D7000160608958CE991E00E941606089582EA0D
:100D800091E00E941606089588EA91E00E941606F6
:100D900008958EEA91E00E941606089584EB91E092
:100DA0000E94160608958AEB91E00E9416060895A7
:100DB00080EC91E00E941606089586EC91E00E9476
:100DC000160608958CEC91E00E941606089582EDB7
:100DD00091E00E941606089588ED91E00E941606A3
:100DE00008958EED91E00E941606089584EE91E03C
:100DF0000E94160608958AEE91E00E941606089554
:100E000080EF91E00E941606089586EF91E00E941F
:100E1000160608958CEF91E00E941606089582E070
:100E200092E00E941606089588E092E00E9416065D
:100E300008958EE092E00E941606089584E192E003
:100E40000E94160608958AE192E00E94160608950F
:100E500080E292E00E941606089586E292E00E94E7
:100E6000160608958CE292E00E941606089582E329
:100E700092E00E941606089588E392E00E9416060A
:100E800008958EE392E00E941606089584E492E0AD
:100E90000E94160608958AE492E00E9416060895BC
:100EA00080E592E00E941606089586E592E00E9491
:100EB000160608958CE592E00E941606089582E6D3
:100EC00092E00E941606089588E692E00E941606B7
:100ED00008958EE692E00E941606089584E792E057
:100EE0000E94160608958AE792E00E941606089569
:100EF00080E892E00E941606089586E892E00E943B
:100F0000160608958CE892E00E9416060895BF9296
:100F1000CF92DF92EF92FF920F931F93CF93DF93C5
:100F20007C01D62FC0E06894DD24D1F8BB24B394B3
:100F3000C12C65C0C1110DC0D43008F0DC2D63E0B8
:100F400088EB8D0F0E94A60563E084E10E94A60550
:100F500024C0C43181F48D2F90E0019604970CF0E9
:100F6000DC2D63E089EB8D0F0E94A60563E084E130
:100F70000E94A60524C0C83281F48D2F90E002960D
:100F800004970CF0DC2D63E08AEB8D0F0E94A60520
:100F900063E084E10E94A60516C0CC3381F48D2F56
:100FA00090E0039604970CF0DC2D63E08BEB8D0F43
:100FB0000E94A60563E084E10E94A60508C086EFB2
:100FC0008C0F8A3070F082EE8C0F8A3060F08EECDD
:100FD0008C0F8A3050F08AEB8C0F8A3040F06B2DEA
:100FE00007C06D2D05C06D2D03C06D2D01C06D2D89
:100FF000F701E00FF11F80810E942D06CF5F0C2FBB
:1010000010E0F70101900020E9F73197EE19FF0990
:101010000E171F0708F48ECFDF91CF911F910F910C
:10102000FF90EF90DF90CF90BF9008951F920F92A6
:101030000FB60F9211242F933F938F939F9395B1E7
:101040002091310330913203822F8170880F880FF5
:10105000880F977F892B85B9809131039091320356
:1010600096958795905890933203809331038091A1
:101070002D03882329F080912D03815080932D0327
:101080009F918F913F912F910F900FBE0F901F90C6
:1010900018951F920F920FB60F9211248F93EF9312
:1010A000FF931C9B05C080913003806880933003C0
:1010B00080912C03815080932C03811109C0EEE6AE
:1010C000F0E080818B7F8083AA9AE09AE89A05C03D
:1010D00080913003869580933003FF91EF918F913B
:1010E0000F900FBE0F901F9018951F920F920FB682
:1010F0000F9211248F93EF93FF9389E080932C0339
:101100001092300386B5883620F486B5885988BD9C
:1011100003C086B5885688BDE89885B3866085BBD0
:10112000EEE6F0E0808184608083FF91EF918F9103
:101130000F900FBE0F901F90189590912D03911155
:10114000FCCF90E09A95880F991F9093320380937B
:1011500031038AE080932D030895FC0180912C03D4
:10116000893068F490912C039111FCCF8091300369
:10117000808389E080932C03808190E008958FEF35
:101180009FEF08958FEF9FEF909332038093310389
:101190001092300310922D0389E080932C03239A40
:1011A00024982B9A1C9A80ED87BDEEE6F0E08081B2
:1011B0008260808384B5826084BD85B5836085BD8F
:1011C00085B7826085BFE89A78940895E89409C04D
:1011D00097FB3EF490958095709561957F4F8F4F6A
:1011E0009F4F9923A9F0F92F96E9BB279395F69580
:1011F000879577956795B795F111F8CFFAF4BB0FFE
:1012000011F460FF1BC06F5F7F4F8F4F9F4F16C061
:10121000882311F096E911C0772321F09EE8872FEB
:10122000762F05C0662371F096E8862F70E060E0A7
:101230002AF09A95660F771F881FDAF7880F969520
:10124000879597F9089597F99F6780E870E060E0C7
:1012500008959FEF80EC089500240A94161617064F
:1012600018060906089500240A9412161306140697
:1012700005060895092E0394000C11F4882352F0FA
:10128000BB0F40F4BF2B11F460FF04C06F5F7F4FB2
:101290008F4F9F4F089557FD9058440F551F59F099
:1012A0005F3F71F04795880F97FB991F61F09F3F53
:1012B00079F087950895121613061406551FF2CF7C
:1012C0004695F1DF08C0161617061806991FF1CFCC
:1012D00086957105610508940895E894BB276627F3
:1012E0007727CB0197F908950E9487090C943A0952
:1012F0000E942C0938F00E94330920F0952311F048
:101300000C9423090C94290911240C946E090E9451
:101310004B0970F3959FC1F3950F50E0551F629FE5
:10132000F001729FBB27F00DB11D639FAA27F00D3E
:10133000B11DAA1F649F6627B00DA11D661F829F65
:101340002227B00DA11D621F739FB00DA11D621F4A
:10135000839FA00D611D221F749F3327A00D611D67
:10136000231F849F600D211D822F762F6A2F112449
:101370009F5750409AF0F1F088234AF0EE0FFF1F7C
:10138000BB1F661F771F881F91505040A9F79E3FD3
:10139000510580F00C9423090C946E095F3FE4F32F
:1013A000983ED4F3869577956795B795F795E79529
:1013B0009F5FC1F7FE2B880F911D9695879597F932
:1013C0000895A0E1B0E0E7EEF9E00C94640D7C0133
:1013D0001B016A01FC0117821682838181FF44C3CD
:1013E0009E012F5F3F4F3901F7019381F10193FD7A
:1013F000859193FF81911F01882309F431C38532C0
:1014000039F493FD859193FF81911F01853239F461
:10141000B70190E00E94890E56016501E5CF10E00A
:10142000512C912CFFE1F915D8F08B3279F038F47A
:10143000803279F08332A1F4F92DF0612EC08D3223
:1014400061F0803369F4292D21602DC0392D32607F
:10145000932E892D8460982E2AC0E92DE86015C04E
:1014600097FC2DC020ED280F2A3088F496FE06C088
:101470003AE0139F200D1124122F19C08AE0589EC4
:10148000200D1124522EE92DE0629E2E10C08E32C6
:1014900031F496FCE5C2F92DF0649F2E08C08C361D
:1014A00021F4292D2068922E02C0883641F4F101E2
:1014B00093FD859193FF81911F018111B3CF9BEB28
:1014C000980F933020F4992D9061805E07C09BE9BE
:1014D000980F933008F066C1992D9F7E96FF16E015
:1014E0009F73992E853619F49064992E08C086361C
:1014F00021F4392F3068932E02C01111115097FE3C
:1015000007C01C3350F444244394410E27E00BC021
:10151000183038F027E017E005C027E09CE3492E9B
:1015200002C0212F412C560184E0A80EB11CF60107
:101530006081718182819381042DA3010E949B0DA2
:101540006C01F981FC87F0FF02C0F3FF06C091FC3B
:1015500006C092FE06C000E205C00DE203C00BE229
:1015600001C000E08C858C7019F001115AC29BC239
:1015700097FE10C04C0CFC85F4FF04C08A818133B7
:1015800009F44A94141474F528E0241578F588E0D9
:10159000482E2CC096FC2AC0812F90E08C159D050A
:1015A0009CF03CEFC3163FEFD30674F0892D8068A2
:1015B000982E0AC0E2E0F0E0EC0FFD1FE10FF11DF4
:1015C0008081803319F411501111F4CF97FE0EC0B1
:1015D00044244394410E812F90E0C816D9062CF480
:1015E0001C1904C04424439401C010E097FE06C0B7
:1015F0001C141D0434F4C601019605C085E090E07A
:1016000002C081E090E001110196112331F0212FF9
:1016100030E02F5F3F4F820F931F252D30E0821760
:10162000930714F4581A01C0512C892D897049F47C
:10163000552039F0B70180E290E00E94890E5A945B
:10164000F7CF002329F0B701802F90E00E94890E88
:1016500093FC09C0552039F0B70180E390E00E9467
:10166000890E5A94F7CF97FE4CC04601D7FE02C0B0
:10167000812C912CC60188199909F301E80FF91FF3
:10168000FE87ED87960124193109388B2F87012FAA
:1016900010E01195019511093FEF8316930629F487
:1016A000B7018EE290E00E94890EC814D9044CF074
:1016B0008F8598898815990524F4ED85FE858181AB
:1016C00001C080E3F1E08F1A91082D853E852F5FE0
:1016D0003F4F3E872D87801691062CF0B70190E092
:1016E0000E94890ED9CFC814D90441F49A81963347
:1016F00020F4953319F43C8534FF81E3B70190E081
:101700004EC08A81813319F09C859F7E9C87B701EA
:1017100090E00E94890E111105C094FC18C085E666
:1017200090E017C0B7018EE290E00E94890E1E5F24
:1017300082E001E0080FF301E80FF11D8081B7019D
:1017400090E00E94890E802F0113F3CFE6CF85E44D
:1017500090E0B7010E94890ED7FC06C0C114D104E5
:1017600041F4EC85E4FF05C0D194C194D1088DE229
:1017700001C08BE2B70190E00E94890E80E32AE06D
:10178000C216D1042CF08F5FFAE0CF1AD108F7CF40
:10179000B70190E00E94890EB701C601C0960E9471
:1017A000890E54C1833631F0833779F0833509F0DF
:1017B00056C020C0560132E0A30EB11CF601808154
:1017C000898301E010E0630112C05601F2E0AF0E20
:1017D000B11CF601C080D18096FE03C0612F70E07D
:1017E00002C06FEF7FEFC6010E947E0E8C01F92DC3
:1017F000FF7714C0560122E0A20EB11CF601C08092
:10180000D18096FE03C0612F70E002C06FEF7FEFC2
:10181000C6010E94730E8C01F92DF0689F2EF3FD16
:101820001AC0852D90E008171907A8F4B70180E2C7
:1018300090E00E94890E5A94F4CFF60197FC8591AE
:1018400097FE81916F01B70190E00E94890E5110BF
:101850005A94015011090115110579F7F7C0843622
:1018600011F0893661F5560197FE09C024E0A20EF9
:10187000B11CF60160817181828193810AC0F2E01E
:10188000AF0EB11CF60160817181072E000C880B30
:10189000990BF92DFF769F2E97FF09C090958095A3
:1018A000709561957F4F8F4F9F4FF0689F2E2AE074
:1018B00030E0A3010E94FD0EC82EC6183FC0092DBE
:1018C000853721F40F7E2AE030E01DC0097F8F3676
:1018D00091F018F4883559F0C3C0803719F0883773
:1018E00011F0BEC0006104FF09C0046007C094FE8F
:1018F00008C0066006C028E030E005C020E130E006
:1019000002C020E132E0560107FF09C084E0A80EC2
:10191000B11CF601608171818281938108C0F2E07F
:10192000AF0EB11CF6016081718180E090E0A301EF
:101930000E94FD0EC82EC6180F77902E96FE0BC083
:10194000092D0E7FC11650F494FE0AC092FC08C007
:10195000092D0E7E05C0DC2C092D03C0DC2C01C036
:10196000D12E04FF0DC0FE01EC0DF11D80818033EE
:1019700011F4097E09C002FF06C0D394D39404C0B9
:10198000802F867809F0D39403FD11C000FF06C0B4
:101990001C2DD51480F4150D1D190DC0D51458F447
:1019A000B70180E290E00E94890ED394F7CFD5145E
:1019B00010F45D1801C0512C04FF10C0B70180E382
:1019C00090E00E94890E02FF17C001FD03C088E766
:1019D00090E002C088E590E0B7010CC0802F8678C7
:1019E00059F001FF02C08BE201C080E207FD8DE2E9
:1019F000B70190E00E94890EC11638F4B70180E368
:101A000090E00E94890E1150F7CFCA94F301EC0DBB
:101A1000F11D8081B70190E00E94890EC110F5CFC1
:101A200015C0F4E0F51560F584E0581A93FE1FC068
:101A3000011127C02C8523FF2AC00EE111E0392DAA
:101A40003071932EF8018491811124C0552009F43E
:101A5000E4CCB70180E290E00E94890E5A94F6CF60
:101A6000F7018681978126C08FEF9FEF23C0B701D2
:101A700080E290E00E94890E5A945110F8CFD8CF9E
:101A8000512CB701802F90E00E94890ED3CF02E243
:101A900011E0D5CF91108052B70190E00E94890EDD
:101AA0000F5F1F4FCFCF23E0251510F483E0BDCF8C
:101AB000512CC0CF6096E2E10C94800DEE0FFF1F19
:101AC0000590F491E02D09942F923F924F925F92EE
:101AD0006F927F928F929F92AF92BF92CF92DF923E
:101AE000EF92FF920F931F93CF93DF93CDB7DEB7A3
:101AF000CA1BDB0B0FB6F894DEBF0FBECDBF099437
:101B00002A88398848885F846E847D848C849B848D
:101B1000AA84B984C884DF80EE80FD800C811B819B
:101B2000AA81B981CE0FD11D0FB6F894DEBF0FBECA
:101B3000CDBFED010895283008F027E03327DA0102
:101B4000990F311D87FD916000966105710539F48B
:101B500032602E5F3D9330E32A95E1F708959F3F71
:101B600030F080387105610509F03C5F3C5F3D93C2
:101B7000913008F08068911DDF93CF931F930F93EE
:101B8000FF92EF92192F987F9695E92F969596954B
:101B9000E90FFF27E058FE4F99273327EE24FF2453
:101BA000A701E70105900894079428F4360FE71E73
:101BB000F81E491F511D660F771F881F991F069435
:101BC000A1F70590079428F4E70EF81E491F561F49
:101BD000C11D770F881F991F661F0694A1F70590F6
:101BE000079428F4F80E491F561FC71FD11D880FF0
:101BF000991F661F771F0694A1F70590079420F49C
:101C0000490F561FC71FD81F990F661F771F881FC0
:101C10000694A9F784911095177041F0D695C79551
:101C200057954795F794E7941A95C1F7E6E2F1E0E6
:101C300068941590159135916591959105907FE285
:101C40007395E118F10A430B560BC90BD009C0F785
:101C5000E10CF11E431F561FC91FD01D7EF47033C7
:101C600011F48A95E6CFE894015030F0080F0AF499
:101C70000027021708F4202F2395022F7A3328F02B
:101C800079E37D932A95E9F710C07D932A9589F62B
:101C9000069497956795379517951794E118F10A6B
:101CA000430B560BC90BD00998F023957E91739581
:101CB0007A3308F070E37C932013B8F77E9170615B
:101CC0007D9330F0839571E37D9370E32A95E1F77E
:101CD0001124EF90FF900F911F91CF91DF919927E1
:101CE00087FD90950895FC010590615070400110AA
:101CF000D8F7809590958E0F9F1F0895FC01615035
:101D0000704001900110D8F7809590958E0F9F1F1D
:101D100008950F931F93CF93DF93FB01238121FD40
:101D200003C08FEF9FEF2CC022FF16C04681578162
:101D3000248135814217530744F4A081B1819D016C
:101D40002F5F3F4F318320838C93268137812F5F14
:101D50003F4F3783268314C08B01EC01FB010084C5
:101D6000F185E02D0995892BE1F6D80116968D9124
:101D70009C911797019617969C938E931697CE0178
:101D8000DF91CF911F910F910895A0E0B0E0EBECAF
:101D9000FEE00C94740DAE014B5F5F4FFA01619150
:101DA0007191AF0180919A0390919B030E94E10988
:101DB000E2E00C94900DAEE0B0E0E1EEFEE00C94B9
:101DC000720D0D891E8986E08C831A8309838FEF3B
:101DD0009FE79E838D83AE01475E5F4F6F89788D4D
:101DE000CE0101960E94E109EF81F885E00FF11F15
:101DF00010822E96E4E00C948E0DFA01AA2728306A
:101E000051F1203181F1E8946F936E7F6E5F7F4FC7
:101E10008F4F9F4FAF4FB1E03ED0B4E03CD0670F43
:101E2000781F891F9A1FA11D680F791F8A1F911D96
:101E3000A11D6A0F711D811D911DA11D20D009F4E6
:101E400068943F912AE0269F11243019305D319328
:101E5000DEF6CF010895462F4770405D4193B3E011
:101E60000FD0C9F7F6CF462F4F70405D4A3318F0B8
:101E7000495D31FD4052419302D0A9F7EACFB4E069
:101E8000A6959795879577956795BA95C9F7009721
:101E90006105710508959B01AC010A2E06945795C2
:101EA000479537952795BA95C9F7620F731F841F19
:0A1EB000951FA01D0895F894FFCFC0
:101EBA003E4141413E0000427F400000426151499B
:101ECA0046002141454B31001814127F1000274566
:101EDA00454539003C4A494930000101790503006A
:101EEA00364949493600064949291E000014141486
:101EFA0000007C1211127C007F49494936003E419C
:101F0A00414122007F4141221C007F494949490041
:101F1A007F09090909003E41415132007F0808083A
:101F2A007F0000417F410000204040403F007F0881
:101F3A00142241007F40404040007F0204027F009B
:101F4A007F0408107F003E4141413E007F09090994
:101F5A0006003E4151613E007F0919294600264983
:101F6A004949320001017F0101003F4040403F00E2
:101F7A001F2040201F007F2010207F0063140814B8
:101F8A006300030478040300615149454300205467
:101F9A00545478007F484444380038444444440048
:101FAA00384444487F00385454541800087E0902C3
:101FBA000000085454543C007F10080870000000C8
:101FCA007A0000000040403D00007F1028440000D5
:101FDA0000007F0000007804780478007C0804047C
:101FEA0078003844444438007C1414140800081457
:101FFA0014147C007C080404080048545454240037
:10200A00043F444020003C4040207C001C204020EB
:10201A001C003C4030403C004428102844000C502E
:10202A0050503C004464544C4400000040000000FE
:10203A0000000000000000080808000000081C0852
:10204A00000025643D2563256400543D2564202055
:10205A00483D2564204144433D252E662074696D20
:10206A003D25640D0A002578257825782578257878
:10207A002578257825782578002025782025782048
:10208A002578202578202578202578202578202570
:06209A00782025782000EB
:00000001FF
