S00F00004D4731323233322E7372656387
S11300000C9410010C942D010C942D010C942D01D1
S11300100C942D010C942D010C942D010C942D01A4
S11300200C942D010C942D010C942D010C942D0194
S11300300C942D010C942D010C942D010C942D0184
S11300400C94E3030C942D010C942D010C942D01BC
S11300500C942D010C942F010C942D010C942D0162
S11300600C942D010C942D01E206F006F006F00626
S1130070F006F006F006F006F006F006F006EC06D0
S1130080F006E706DD06F006A205A705AC05B105F6
S1130090B605BB05C005C505CA05CF05F006F006C3
S11300A0F006D405F006F006F006D905DE05E305F2
S11300B0E805ED05F205F705FC05010606060B0645
S11300C0100615061A061F06240629062E063306F0
S11300D038063D06420647064C0651065606F0060B
S11300E0F006F006F006F006F0065B06600665060C
S11300F06A066F06740679067E06830688068D06F0
S1130100920697069C06A106A606AB06B006B5069F
S1130110BA06BF06C406C906CE06D306D8066E6163
S11301206E00696E660000407A10F35A00A0724EA9
S113013018090010A5D4E80000E87648170000E488
S11301400B54020000CA9A3B000000E1F5050000D0
S113015080969800000040420F000000A086010035
S11301600000102700000000E80300000000640005
S1130170000000000A000000000001000000000070
S11301802C76D888DC674F0823DFC1DFAE59E1B194
S1130190B796E5E3E453C63AE651997696E8E6C2A3
S11301A08426EB898C9B62ED407C6FFCEFBC9C9FAA
S11301B040F2BAA56FA5F490055A2AF75C936B6CCC
S11301C0F9676DC11BFCE0E40D47FEF520E6B500C0
S11301D0D0ED902E0300943577050080841E08002E
S11301E000204E0A000000C80C333333330F986EDE
S11301F012831141EF8D2114893BE65516CFFEE69B
S1130200DB18D1844B381BF77C1D901DA4BBE42460
S1130210203284725E228100C9F124ECA1E53D27DD
S113022011241FBECFEFD8E0DEBFCDBF12E0A0E0A7
S1130230B1E0E2ECFBE102C005900D92A63BB107F0
S1130240D9F723E0A6EBB2E001C01D92AA35B207AC
S1130250E1F70E94FA030C94DF0D0C9400001F9246
S11302600F920FB60F9211242F938F939F93209187
S113027078002093B602809179008093B70290E0D1
S1130280982F8827820F911D9093FD028093FC0282
S11302909F918F912F910F900FBE0F901F901895E3
S11302A0EAE7F0E080818F6E8083ECE7F0E0808104
S11302B083648083089514BC85E085BD81E08093C8
S11302C06E00089527E030E080E061E070E0309B4C
S11302D0FECF90EA9A95F1F7309B08C0AB01022E4D
S11302E002C0440F551F0A94E2F7842B3099FECFC5
S11302F02150310960F708950F931F93CF93DF9333
S1130300EEEFF2E010821282389A40982FEF89EFD4
S113031090E0215080409040E1F700C00000409AF6
S113032020EA2A95F1F7389885E08A95F1F70000DC
S113033086B181708093030381111DC08FE391E026
S11303400197F1F700C0000086B181708093030328
S1130350882389F08FE391E00197F1F700C0000052
S1130360EF0103E013E00E9462018993C017D107F3
S1130370D1F7389A409ADF91CF911F910F91089548
S11303808091000308958091FE020895F894399AAB
S113039083E997E00197F1F700C000003998EFE88E
S11303A0F1E03197F1F700C0000086B1E3E0F6E038
S11303B03197F1F700C000008695817091E089279C
S11303C00895F894399A9AE09A95F1F700C081114A
S11303D0399887EF90E00197F1F700C00000399851
S11303E00895EF92FF920F931F93CF93DF93C0E092
S11303F0D0E0EE24E394F12C082F10E097010C2EAA
S113040002C0220F331F0A94E2F7A80142235323A8
S11304102417350721F481E00E94E10103C080E044
S11304200E94E1012196C830D10541F7DF91CF91B7
S11304301F910F91FF90EF900895F894399A8AE0F4
S11304408A95F1F700C03998E5E3EA95F1F70000E1
S113045086B1EFECF0E03197F1F700C0000086952B
S1130460817008951F93CF93DF93C0E0D0E010E034
S11304700E941D0290E00C2E02C0880F991F0A945E
S1130480E2F7182B2196C830D10591F7812FDF911F
S1130490CF911F910895BF92CF92DF92EF92FF9276
S11304A00F931F93CF93DF93B82EC92E80910D0322
S11304B0811105C00E94C60180EF0E94F101D1E0C4
S11304C010E0E12C01E0FF24F394D12C0E941D02E2
S11304D0C82F0E941D02C13009F054C08130E1F4DC
S11304E038C080910E03081750F4E12FF0E0EC5F60
S11304F0FC4F80818D23CF2D29F4CD2D03C0CF2D2A
S11305000813CD2DC11106C0093008F03EC0009378
S11305100C033BC0C13049F4E12FF0E0EC5FFC4F29
S113052080818D2B8083CF2D09C0E12FF0E0EC5F1B
S1130530FC4F90818D2F8095892380838C2F0E947E
S1130540E1010F5FDD0F11F41F5FD1E0183008F4F3
S1130550BDCF013440F0E0920E03E11018C081E0F9
S113056080930D0314C010920E0310920D03109289
S11305700C0380E017C081918D932E173F07D9F7A4
S113058081E010C0C813D1CFACCFE02ECECF809184
S11305900403882341F3E4E0F3E0AB2DBC2D2CE00D
S11305A033E0E9CFDF91CF911F910F91FF90EF904E
S11305B0DF90CF90BF900895CF92DF92EF92FF9299
S11305C00F931F93CF93DF93CDB7DEB728970FB662
S11305D0F894DEBF0FBECDBF811116C00E94C601C4
S11305E0882309F467C08CEC0E94F1018EE40E9418
S11305F0F10184E60E94F1018EE10E94F1018FE78E
S11306000E94F10180E059C008E010E0CE0101969B
S11306100E944B02811105C08091110381111AC0FF
S11306204CC0A0911103AF5FA0931103B0E0AA0FD7
S1130630BB1FAA0FBB1FAA0FBB1FAC54BD4F88E042
S1130640FE01319601900D928A95E1F7015011094E
S1130650E9F6E2CF0CEB12E0CC24C394D12C0E9437
S1130660C601882349F185E50E94F101780188E0FB
S1130670E80EF11CF80181918F010E94F1010E1521
S11306801F05C1F78EE40E94F1018EE10E94F10181
S113069084E10E94F1018FE70E94F101FFEFCF1A7C
S11306A0DF0A87018091110390E08C159D05BCF64B
S11306B080E003C081E001C081E028960FB6F89481
S11306C0DEBF0FBECDBFDF91CF911F910F91FF9081
S11306D0EF90DF90CF9008950F931F93CF93DF9304
S11306E0C82F062F0E94C601C11104C08CEC0E94C1
S11306F0F1011BC085E50E94F10110E0E801CC0F77
S1130700DD1FCC0FDD1FCC0FDD1FCC54DD4F000FE0
S1130710111F000F111F000F111F04541D4F899149
S11307200E94F101C017D107D1F784E40E94F101BE
S1130730DF91CF911F910F910895EF92FF920F9344
S11307401F93CF93DF93C82F8B01E42E0E94C60121
S1130750C11104C08CEC0E94F1011EC085E50E9409
S1130760F101F12CE701CC0FDD1FCC0FDD1FCC0F05
S1130770DD1FCC54DD4FC701880F991F880F991FC7
S1130780880F991F9C0124543D4F790189910E943F
S1130790F101CE15DF05D1F78EEB0E94F101E801DE
S11307A0075F1F4F0E9432028993C017D107D1F708
S11307B0DF91CF911F910F91FF90EF90089593FBDC
S11307C0882780F908951F920F920FB60F92112473
S11307D08F939F9380910F039091100301969093B0
S11307E0100380930F039F918F910F900FBE0F9072
S11307F01F901895259A1092FD021092FC020E94F7
S11308005B010E944A050E94500181E00E94DC02C3
S11308100F2EF2E9EF2EF2E0FF2EF02D02E113E0AD
S11308200F2EFAE9CF2EF2E0DF2EF02D78940E94FD
S1130830320580910F03909110038C32914040F463
S11308402D9880910F0390911003892B39F40BC0DC
S11308502D9A1092100310920F0305C0809111037A
S1130860811106C08CC060E080E00E946C0387C0E8
S1130870BB24B3944B2D62E573E081E00E949D0399
S1130880E2E5F3E08180912C982C88248081882AE9
S1130890C4010E94DF03811102C0CBE201C0CDE29A
S11308A08FE098229694879496948794969487944C
S11308B09694879491E0B91209C063E089EB0E9491
S11308C0120563E084E10E9412051AC023E0B2120B
S11308D00AC063E08AEB0E94120563E084E10E948F
S11308E01205D1E01BC085E0B8120AC063E08BEBAF
S11308F00E94120563E084E10E941205D1E00EC05B
S11309008B2D8B7F823019F094E0B91206C062E01F
S113091085E20E941205D2E001C0D1E09F928F923D
S11309201F92CF931F92BF92FF92EF921F930F9348
S11309300E945F0D8DB79EB70A960FB6F8949EBFBE
S11309400FBE8DBFC0E009C0EC2FF0E0EE5EFC4F9F
S11309506D2F80810E949705CF5FF80101900020E0
S1130960E9F73197E251F3408C2F90E08E179F07FF
S113097058F3B394809111038B1508F07BCF6091E9
S1130980FC027091FD026255710980E090E00E94C2
S1130990800720E03DEA42E751E40E940E0860939C
S11309A0B8027093B9028093BA029093BB020E947A
S11309B07C01A0900F0370901003D091B802B09006
S11309C0B9029090BA028090BB020E94C301C82F62
S11309D00E94C0017F92AF928F929F92BF92DF9349
S11309E01F92CF9390E003969F938F93DF92CF92C1
S11309F01F930F930E945F0D60E0C8010E94F106EF
S1130A009FEF2BE782E9915020408040E1F700C03E
S1130A1000008DB79EB70E960FB6F8949EBF0FBE1A
S1130A208DBF04CFF8949FEF9AB98BB92A9860FDD3
S1130A30289A61FD299A85B18C7F85B91BB81AB8AB
S1130A4078940895F8949FEF9AB98BB92A9A60FD27
S1130A50289A61FD299A85B18C7F85B91BB81AB88B
S1130A6078940895CF93DF93D8EB63E08D2F0E94A1
S1130A70120563E083E10E941205CDE363E080E0A8
S1130A800E942205C150D1F7DF5FDC3B71F7DF9193
S1130A90CF9108958FEF8AB98BB984B1876084B9F7
S1130AA085B1876085B92A9A85B1876085B92A9A04
S1130AB085B1876085B985B185B963E082EE0E940E
S1130AC0120563E089EA0E94120563E084EA0E9449
S1130AD0120563E081EA0E94120563E08FEA0E9436
S1130AE012050E94320563E088EB0E94120563E060
S1130AF083E10E94120563E08FED0E9412050895C0
S1130B00FF920F931F93CF93DF93F62EEC018C018A
S1130B100A5F1F4F6F2D89910E942205C017D107CC
S1130B20C9F7DF91CF911F910F91FF90089590E045
S1130B30FC01B097EB35F10508F052C1EC5CFF4FB6
S1130B400C94F80B80E091E00E948005089586E003
S1130B5091E00E94800508958CE091E00E94800558
S1130B60089582E191E00E948005089588E191E072
S1130B700E94800508958EE191E00E948005089509
S1130B8084E291E00E94800508958AE291E00E9447
S1130B908005089580E391E00E948005089586E32E
S1130BA091E00E94800508958CE391E00E94800505
S1130BB0089582E491E00E948005089588E491E01C
S1130BC00E94800508958EE491E00E9480050895B6
S1130BD084E591E00E94800508958AE591E00E94F1
S1130BE08005089580E691E00E948005089586E6D8
S1130BF091E00E94800508958CE691E00E948005B2
S1130C00089582E791E00E948005089588E791E0C5
S1130C100E94800508958EE791E00E948005089562
S1130C2084E891E00E94800508958AE891E00E949A
S1130C308005089580E991E00E948005089586E981
S1130C4091E00E94800508958CE991E00E9480055E
S1130C50089582EA91E00E948005089588EA91E06F
S1130C600E94800508958EEA91E00E94800508950F
S1130C7084EB91E00E94800508958AEB91E00E9444
S1130C808005089580EC91E00E948005089586EC2B
S1130C9091E00E94800508958CEC91E00E9480050B
S1130CA0089582ED91E00E948005089588ED91E019
S1130CB00E94800508958EED91E00E9480050895BC
S1130CC084EE91E00E94800508958AEE91E00E94EE
S1130CD08005089580EF91E00E948005089586EFD5
S1130CE091E00E94800508958CEF91E00E948005B8
S1130CF0089582E092E00E948005089588E092E0E1
S1130D000E94800508958EE092E00E948005089577
S1130D1084E192E00E94800508958AE192E00E94B5
S1130D208005089580E292E00E948005089586E29D
S1130D3092E00E94800508958CE292E00E94800572
S1130D40089582E392E00E948005089588E392E08A
S1130D500E94800508958EE392E00E948005089524
S1130D6084E492E00E94800508958AE492E00E945F
S1130D708005089580E592E00E948005089586E547
S1130D8092E00E94800508958CE592E00E9480051F
S1130D90089582E692E00E948005089588E692E034
S1130DA00E94800508958EE692E00E9480050895D1
S1130DB084E792E00E94800508958AE792E00E9409
S1130DC08005089580E892E00E948005089586E8F1
S1130DD092E00E94800508958CE892E00E948005CC
S1130DE00895BF92CF92DF92EF92FF920F931F93D9
S1130DF0CF93DF937C01D62FC0E06894DD24D1F833
S1130E00BB24B394C12C65C0C1110DC0D43008F00B
S1130E10DC2D63E088EB8D0F0E94120563E084E112
S1130E200E94120524C0C43181F48D2F90E00196F4
S1130E3004970CF0DC2D63E089EB8D0F0E94120502
S1130E4063E084E10E94120524C0C83281F48D2F2E
S1130E5090E0029604970CF0DC2D63E08AEB8D0F92
S1130E600E94120563E084E10E94120516C0CC338F
S1130E7081F48D2F90E0039604970CF0DC2D63E051
S1130E808BEB8D0F0E94120563E084E10E94120532
S1130E9008C086EF8C0F8A3070F082EE8C0F8A3097
S1130EA060F08EEC8C0F8A3050F08AEB8C0F8A3015
S1130EB040F06B2D07C06D2D05C06D2D03C06D2D49
S1130EC001C06D2DF701E00FF11F80810E9497058D
S1130ED0CF5F0C2F10E0F70101900020E9F7319764
S1130EE0EE19FF090E171F0708F48ECFDF91CF917B
S1130EF01F910F91FF90EF90DF90CF90BF900895D6
S1130F00E89409C097FB3EF490958095709561959F
S1130F107F4F8F4F9F4F9923A9F0F92F96E9BB2755
S1130F209395F695879577956795B795F111F8CFD1
S1130F30FAF4BB0F11F460FF1BC06F5F7F4F8F4F3C
S1130F409F4F16C0882311F096E911C0772321F032
S1130F509EE8872F762F05C0662371F096E8862FCA
S1130F6070E060E02AF09A95660F771F881FDAF721
S1130F70880F9695879597F9089597F99F6780E864
S1130F8070E060E008959FEF80EC089500240A94D7
S1130F901616170618060906089500240A94121650
S1130FA01306140605060895092E0394000C11F483
S1130FB0882352F0BB0F40F4BF2B11F460FF04C030
S1130FC06F5F7F4F8F4F9F4F089557FD9058440F89
S1130FD0551F59F05F3F71F04795880F97FB991F94
S1130FE061F09F3F79F08795089512161306140651
S1130FF0551FF2CF4695F1DF08C0161617061806DE
S1131000991FF1CF86957105610508940895E894B8
S1131010BB2766277727CB0197F908950E942108FB
S11310200C94D4070E94C60738F00E94CD0720F024
S1131030952311F00C94BD070C94C30711240C9450
S113104008080E94E50770F3959FC1F3950F50E0DF
S1131050551F629FF001729FBB27F00DB11D639F66
S1131060AA27F00DB11DAA1F649F6627B00DA11D0C
S1131070661F829F2227B00DA11D621F739FB00DB2
S1131080A11D621F839FA00D611D221F749F332722
S1131090A00D611D231F849F600D211D822F762FBB
S11310A06A2F11249F5750409AF0F1F088234AF098
S11310B0EE0FFF1FBB1F661F771F881F9150504004
S11310C0A9F79E3F510580F00C94BD070C940808C5
S11310D05F3FE4F3983ED4F3869577956795B7958B
S11310E0F795E7959F5FC1F7FE2B880F911D9695A5
S11310F0879597F90895A0E1B0E0E1E8F8E00C9451
S1131100FE0B7C011B016A01FC011782168283819C
S113111081FF44C39E012F5F3F4F3901F701938143
S1131120F10193FD859193FF81911F01882309F4B7
S113113031C3853239F493FD859193FF81911F0169
S1131140853239F4B70190E00E94230D5601650100
S1131150E5CF10E0512C912CFFE1F915D8F08B323A
S113116079F038F4803279F08332A1F4F92DF0610A
S11311702EC08D3261F0803369F4292D21602DC099
S1131180392D3260932E892D8460982E2AC0E92D42
S1131190E86015C097FC2DC020ED280F2A3088F494
S11311A096FE06C03AE0139F200D1124122F19C099
S11311B08AE0589E200D1124522EE92DE0629E2EC5
S11311C010C08E3231F496FCE5C2F92DF0649F2EE6
S11311D008C08C3621F4292D2068922E02C088364E
S11311E041F4F10193FD859193FF81911F018111D8
S11311F0B3CF9BEB980F933020F4992D9061805ED0
S113120007C09BE9980F933008F066C1992D9F7E23
S113121096FF16E09F73992E853619F49064992EE3
S113122008C0863621F4392F3068932E02C011117C
S1131230115097FE07C01C3350F444244394410ECC
S113124027E00BC0183038F027E017E005C027E08E
S11312509CE3492E02C0212F412C560184E0A80EA4
S1131260B11CF6016081718182819381042DA301F7
S11312700E94350C6C01F981FC87F0FF02C0F3FF7A
S113128006C091FC06C092FE06C000E205C00DE255
S113129003C00BE201C000E08C858C7019F00111D1
S11312A05AC29BC297FE10C04C0CFC85F4FF04C0CC
S11312B08A81813309F44A94141474F528E02415BE
S11312C078F588E0482E2CC096FC2AC0812F90E047
S11312D08C159D059CF03CEFC3163FEFD30674F0CC
S11312E0892D8068982E0AC0E2E0F0E0EC0FFD1F23
S11312F0E10FF11D8081803319F411501111F4CFE5
S113130097FE0EC044244394410E812F90E0C816EA
S1131310D9062CF41C1904C04424439401C010E0E1
S113132097FE06C01C141D0434F4C601019605C0C2
S113133085E090E002C081E090E001110196112364
S113134031F0212F30E02F5F3F4F820F931F252D67
S113135030E08217930714F4581A01C0512C892DD8
S1131360897049F4552039F0B70180E290E00E9479
S1131370230D5A94F7CF002329F0B701802F90E072
S11313800E94230D93FC09C0552039F0B70180E376
S113139090E00E94230D5A94F7CF97FE4CC046016B
S11313A0D7FE02C0812C912CC60188199909F3013A
S11313B0E80FF91FFE87ED87960124193109388B50
S11313C02F87012F10E01195019511093FEF831626
S11313D0930629F4B7018EE290E00E94230DC8140D
S11313E0D9044CF08F8598898815990524F4ED85E6
S11313F0FE85818101C080E3F1E08F1A91082D857B
S11314003E852F5F3F4F3E872D87801691062CF037
S1131410B70190E00E94230DD9CFC814D90441F438
S11314209A81963320F4953319F43C8534FF81E393
S1131430B70190E04EC08A81813319F09C859F7E6C
S11314409C87B70190E00E94230D111105C094FC04
S113145018C085E690E017C0B7018EE290E00E94C4
S1131460230D1E5F82E001E0080FF301E80FF11D78
S11314708081B70190E00E94230D802F0113F3CFE8
S1131480E6CF85E490E0B7010E94230DD7FC06C0A7
S1131490C114D10441F4EC85E4FF05C0D194C19496
S11314A0D1088DE201C08BE2B70190E00E94230DC8
S11314B080E32AE0C216D1042CF08F5FFAE0CF1A41
S11314C0D108F7CFB70190E00E94230DB701C60100
S11314D0C0960E94230D54C1833631F0833779F0CE
S11314E0833509F056C020C0560132E0A30EB11C6A
S11314F0F6018081898301E010E0630112C0560186
S1131500F2E0AF0EB11CF601C080D18096FE03C09C
S1131510612F70E002C06FEF7FEFC6010E94180DCB
S11315208C01F92DFF7714C0560122E0A20EB11CE4
S1131530F601C080D18096FE03C0612F70E002C026
S11315406FEF7FEFC6010E940D0D8C01F92DF0683D
S11315509F2EF3FD1AC0852D90E008171907A8F4F3
S1131560B70180E290E00E94230D5A94F4CFF60173
S113157097FC859197FE81916F01B70190E00E94DD
S1131580230D51105A94015011090115110579F7D1
S1131590F7C0843611F0893661F5560197FE09C00B
S11315A024E0A20EB11CF6016081718182819381D5
S11315B00AC0F2E0AF0EB11CF60160817181072E02
S11315C0000C880B990BF92DFF769F2E97FF09C00D
S11315D090958095709561957F4F8F4F9F4FF068E0
S11315E09F2E2AE030E0A3010E94810DC82EC61868
S11315F03FC0092D853721F40F7E2AE030E01DC05D
S1131600097F8F3691F018F4883559F0C3C08037BC
S113161019F0883711F0BEC0006104FF09C00460EE
S113162007C094FE08C0066006C028E030E005C08C
S113163020E130E002C020E132E0560107FF09C09A
S113164084E0A80EB11CF6016081718182819381CE
S113165008C0F2E0AF0EB11CF6016081718180E038
S113166090E0A3010E94810DC82EC6180F77902E1A
S113167096FE0BC0092D0E7FC11650F494FE0AC0CD
S113168092FC08C0092D0E7E05C0DC2C092D03C078
S1131690DC2C01C0D12E04FF0DC0FE01EC0DF11DA8
S11316A08081803311F4097E09C002FF06C0D394FF
S11316B0D39404C0802F867809F0D39403FD11C01D
S11316C000FF06C01C2DD51480F4150D1D190DC086
S11316D0D51458F4B70180E290E00E94230DD3940E
S11316E0F7CFD51410F45D1801C0512C04FF10C0BD
S11316F0B70180E390E00E94230D02FF17C001FDB3
S113170003C088E790E002C088E590E0B7010CC010
S1131710802F867859F001FF02C08BE201C080E27D
S113172007FD8DE2B70190E00E94230DC11638F445
S1131730B70180E390E00E94230D1150F7CFCA94C3
S1131740F301EC0DF11D8081B70190E00E94230D9F
S1131750C110F5CF15C0F4E0F51560F584E0581A12
S113176093FE1FC0011127C02C8523FF2AC00EE160
S113177011E0392D3071932EF8018491811124C028
S1131780552009F4E4CCB70180E290E00E94230DD7
S11317905A94F6CFF7018681978126C08FEF9FEF89
S11317A023C0B70180E290E00E94230D5A945110A7
S11317B0F8CFD8CF512CB701802F90E00E94230D91
S11317C0D3CF02E211E0D5CF91108052B70190E05F
S11317D00E94230D0F5F1F4FCFCF23E0251510F478
S11317E083E0BDCF512CC0CF6096E2E10C941A0C7B
S11317F0EE0FFF1F0590F491E02D09942F923F9274
S11318004F925F926F927F928F929F92AF92BF920C
S1131810CF92DF92EF92FF920F931F93CF93DF93B8
S1131820CDB7DEB7CA1BDB0B0FB6F894DEBF0FBE15
S1131830CDBF09942A88398848885F846E847D8462
S11318408C849B84AA84B984C884DF80EE80FD8064
S11318500C811B81AA81B981CE0FD11D0FB6F894DA
S1131860DEBF0FBECDBFED010895283008F027E09C
S11318703327DA01990F311D87FD916000966105C8
S1131880710539F432602E5F3D9330E32A95E1F718
S113189008959F3F30F080387105610509F03C5F81
S11318A03C5F3D93913008F08068911DDF93CF93A6
S11318B01F930F93FF92EF92192F987F9695E92F1C
S11318C096959695E90FFF27E058FE4F9927332701
S11318D0EE24FF24A701E70105900894079428F457
S11318E0360FE71EF81E491F511D660F771F881F0C
S11318F0991F0694A1F70590079428F4E70EF81EA3
S1131900491F561FC11D770F881F991F661F069414
S1131910A1F70590079428F4F80E491F561FC71F16
S1131920D11D880F991F661F771F0694A1F7059094
S1131930079420F4490F561FC71FD81F990F661F1D
S1131940771F881F0694A9F784911095177041F0AA
S1131950D695C79557954795F794E7941A95C1F787
S1131960E6E2F1E0689415901591359165919591B1
S113197005907FE27395E118F10A430B560BC90BEE
S1131980D009C0F7E10CF11E431F561FC91FD01D1B
S11319907EF4703311F48A95E6CFE894015030F068
S11319A0080F0AF40027021708F4202F2395022FAA
S11319B07A3328F079E37D932A95E9F710C07D9373
S11319C02A9589F6069497956795379517951794F0
S11319D0E118F10A430B560BC90BD00998F0239573
S11319E07E9173957A3308F070E37C932013B8F7F3
S11319F07E9170617D9330F0839571E37D9370E304
S1131A002A95E1F71124EF90FF900F911F91CF9148
S1131A10DF91992787FD90950895FC010590615009
S1131A2070400110D8F7809590958E0F9F1F0895F0
S1131A30FC016150704001900110D8F78095909599
S1131A408E0F9F1F08950F931F93CF93DF93FB0176
S1131A50238121FD03C08FEF9FEF2CC022FF16C00E
S1131A6046815781248135814217530744F4A0816C
S1131A70B1819D012F5F3F4F318320838C93268159
S1131A8037812F5F3F4F3783268314C08B01EC01CE
S1131A90FB010084F185E02D0995892BE1F6D8013D
S1131AA016968D919C911797019617969C938E93F9
S1131AB01697CE01DF91CF911F910F910895AEE05B
S1131AC0B0E0E5E6FDE00C940C0C0D891E8986E07F
S1131AD08C831A8309838FEF9FE79E838D83AE01E6
S1131AE0475E5F4F6F89788DCE0101960E947B0817
S1131AF0EF81F885E00FF11F10822E96E4E00C943C
S1131B00280CFA01AA27283051F1203181F1E894F8
S1131B106F936E7F6E5F7F4F8F4F9F4FAF4FB1E0DC
S1131B203ED0B4E03CD0670F781F891F9A1FA11DD7
S1131B30680F791F8A1F911DA11D6A0F711D811DD8
S1131B40911DA11D20D009F468943F912AE0269F9D
S1131B5011243019305D3193DEF6CF010895462FFC
S1131B604770405D4193B3E00FD0C9F7F6CF462FDD
S1131B704F70405D4A3318F0495D31FD4052419346
S1131B8002D0A9F7EACFB4E0A69597958795779503
S1131B906795BA95C9F700976105710508959B018A
S1131BA0AC010A2E06945795479537952795BA9513
S1131BB0C9F7620F731F841F951FA01D0895F89421
S1051BC0FFCF51
S1131BC23E4141413E0000427F4000004261514992
S1131BD246002141454B31001814127F100027455D
S1131BE2454539003C4A4949300001017905030061
S1131BF2364949493600064949291E00001414147D
S1131C0200007C1211127C007F49494936003E4192
S1131C12414122007F4141221C007F494949490038
S1131C227F09090909003E41415132007F08080831
S1131C327F0000417F410000204040403F007F0878
S1131C42142241007F40404040007F0204027F0092
S1131C527F0408107F003E4141413E007F0909098B
S1131C6206003E4151613E007F091929460026497A
S1131C724949320001017F0101003F4040403F00D9
S1131C821F2040201F007F2010207F0063140814AF
S1131C92630003047804030061514945430020545E
S1131CA2545478007F48444438003844444444003F
S1131CB2384444487F00385454541800087E0902BA
S1131CC20000085454543C007F10080870000000BF
S1131CD27A0000000040403D00007F1028440000CC
S1131CE200007F0000007804780478007C08040473
S1131CF278003844444438007C141414080008144E
S1131D0214147C007C08040408004854545424002D
S1131D12043F444020003C4040207C001C204020E2
S1131D221C003C4030403C004428102844000C5025
S1131D3250503C004464544C4400000040000000F5
S1131D4200000000000000080808000000081C0849
S1131D52000025643D2563256400543D256420204C
S1131D62483D2564204144433D252E662074696D17
S1091D723D25640D0A008A
S9030000FC
