:100000000C9410010C942D010C942D010C942D01D5
:100010000C942D010C942D010C942D010C942D01A8
:100020000C942D010C942D010C942D010C942D0198
:100030000C942D010C942D010C942D010C942D0188
:100040000C942D010C942D010C942D010C942D0178
:100050000C942D010C942F010C942D010C942D0166
:100060000C942D010C942D013308410841084108DE
:1000700041084108410841084108410841083D083C
:10008000410838082E084108F306F806FD06020765
:1000900007070C07110716071B072007410841082F
:1000A000410825074108410841082A072F0734075E
:1000B00039073E07430748074D07520757075C07B4
:1000C000610766076B07700775077A077F07840764
:1000D00089078E07930798079D07A207A70741087E
:1000E00041084108410841084108AC07B107B6077B
:1000F000BB07C007C507CA07CF07D407D907DE0764
:10010000E307E807ED07F207F707FC070108060811
:100110000B08100815081A081F08240829086E6122
:100120006E00696E660000407A10F35A00A0724EAD
:1001300018090010A5D4E80000E87648170000E48C
:100140000B54020000CA9A3B000000E1F5050000D4
:1001500080969800000040420F000000A086010039
:100160000000102700000000E80300000000640009
:10017000000000000A000000000001000000000074
:100180002C76D888DC674F0823DFC1DFAE59E1B198
:10019000B796E5E3E453C63AE651997696E8E6C2A7
:1001A0008426EB898C9B62ED407C6FFCEFBC9C9FAE
:1001B00040F2BAA56FA5F490055A2AF75C936B6CD0
:1001C000F9676DC11BFCE0E40D47FEF520E6B500C4
:1001D000D0ED902E0300943577050080841E080032
:1001E00000204E0A000000C80C333333330F986EE2
:1001F00012831141EF8D2114893BE65516CFFEE69F
:10020000DB18D1844B381BF77C1D901DA4BBE42464
:10021000203284725E228100C9F124ECA1E53D27E1
:1002200011241FBECFEFD8E0DEBFCDBF13E0A0E0AA
:10023000B1E0E2E3FEE102C005900D92AA35B107FC
:10024000D9F723E0AAE5B3E001C01D92AC3FB207A5
:10025000E1F70E94DC030C94170F0C9400001F922E
:100260000F920FB60F9211242F938F939F9320918B
:10027000780020935A038091790080935B0390E08B
:10028000982F8827820F911D9093A1038093A0033C
:100290009F918F912F910F900FBE0F901F901895E7
:1002A000EAE7F0E080818F6E8083ECE7F0E0808108
:1002B00083648083089527E030E080E061E070E0AF
:1002C000309BFECF90EA9A95F1F7309B08C0AB01C6
:1002D000022E02C0440F551F0A94E2F7842B309976
:1002E000FECF2150310960F708950F931F93CF93EC
:1002F000DF93E2EAF3E010821282389A40982FEFFF
:1003000089EF90E0215080409040E1F700C000006C
:10031000409A20EA2A95F1F7389885E08A95F1F716
:10032000000086B181708093A70381111DC08FE307
:1003300091E00197F1F700C0000086B181708093D1
:10034000A703882389F08FE391E00197F1F700C0BC
:100350000000EF0107EA13E00E945B018993C017D8
:10036000D107D1F7389A409ADF91CF911F910F9121
:1003700008958091A40308958091A2030895F894AC
:10038000399A83E997E00197F1F700C000003998A6
:10039000EFE8F1E03197F1F700C0000086B1E3E04B
:1003A000F6E03197F1F700C000008695817091E08A
:1003B00089270895F894399A9AE09A95F1F700C040
:1003C0008111399887EF90E00197F1F700C00000A4
:1003D00039980895EF92FF920F931F93CF93DF9375
:1003E000C0E0D0E0EE24E394F12C082F10E0970158
:1003F0000C2E02C0220F331F0A94E2F7A8014223F9
:1004000053232417350721F481E00E94DA0103C049
:1004100080E00E94DA012196C830D10541F7DF91D2
:10042000CF911F910F91FF90EF900895F894399A12
:100430008AE08A95F1F700C03998E5E3EA95F1F78B
:10044000000086B1EFECF0E03197F1F700C000005A
:100450008695817008951F93CF93DF93C0E0D0E01D
:1004600010E00E94160290E00C2E02C0880F991F27
:100470000A94E2F7182B2196C830D10591F7812F05
:10048000DF91CF911F910895BF92CF92DF92EF92AB
:10049000FF920F931F93CF93DF93B82EC92E8091B5
:1004A000B103811105C00E94BF0180EF0E94EA01E3
:1004B000D1E010E0E12C01E0FF24F394D12C0E9464
:1004C0001602C82F0E941602C13009F054C08130B4
:1004D000E1F438C08091B203081750F4E12FF0E046
:1004E000E855FC4F80818D23CF2D29F4CD2D03C0FD
:1004F000CF2D0813CD2DC11106C0093008F03EC024
:100500000093B0033BC0C13049F4E12FF0E0E8555F
:10051000FC4F80818D2B8083CF2D09C0E12FF0E02F
:10052000E855FC4F90818D2F8095892380838C2FF7
:100530000E94DA010F5FDD0F11F41F5FD1E0183068
:1005400008F4BDCF013440F0E092B203E11018C0CE
:1005500081E08093B10314C01092B2031092B103F2
:100560001092B00380E017C081918D932E173F0742
:10057000D9F781E010C0C813D1CFACCFE02ECECFD9
:100580008091A803882341F3E8EAF3E0AB2DBC2D6A
:1005900020EB33E0E9CFDF91CF911F910F91FF90D6
:1005A000EF90DF90CF90BF900895CF92DF92EF92BF
:1005B000FF920F931F93CF93DF93CDB7DEB72897AA
:1005C0000FB6F894DEBF0FBECDBF811116C00E94DA
:1005D000BF01882309F467C08CEC0E94EA018EE415
:1005E0000E94EA0184E60E94EA018EE10E94EA018B
:1005F0008FE70E94EA0180E059C008E010E0CE01D8
:1006000001960E944402811105C08091B3038111BB
:100610001AC04CC0A091B303AF5FA093B303B0E086
:10062000AA0FBB1FAA0FBB1FAA0FBB1FA85ABC4F04
:1006300088E0FE01319601900D928A95E1F7015014
:100640001109E9F6E2CF00E613E0CC24C394D12CE3
:100650000E94BF01882349F185E50E94EA017801E3
:1006600088E0E80EF11CF80181918F010E94EA01F7
:100670000E151F05C1F78EE40E94EA018EE10E946B
:10068000EA0184E10E94EA018FE70E94EA01FFEF9C
:10069000CF1ADF0A87018091B30390E08C159D0586
:1006A000BCF680E003C081E001C081E028960FB66F
:1006B000F894DEBF0FBECDBFDF91CF911F910F9198
:1006C000FF90EF90DF90CF9008950F931F93CF93FB
:1006D000DF93C82F062F0E94BF01C11104C08CEC0C
:1006E0000E94EA011BC085E50E94EA0110E0E801D2
:1006F000CC0FDD1FCC0FDD1FCC0FDD1FC85ADC4F28
:10070000000F111F000F111F000F111F005A1C4F67
:1007100089910E94EA01C017D107D1F784E40E94B1
:10072000EA01DF91CF911F910F910895EF92FF920F
:100730000F931F93CF93DF93C82F8B01E42E0E945A
:10074000BF01C11104C08CEC0E94EA011EC085E506
:100750000E94EA01F12CE701CC0FDD1FCC0FDD1F59
:10076000CC0FDD1FC85ADC4FC701880F991F880FB7
:10077000991F880F991F9C01205A3C4F790189913C
:100780000E94EA01CE15DF05D1F78EEB0E94EA0147
:10079000E801075F1F4F0E942B028993C017D10702
:1007A000D1F7DF91CF911F910F91FF90EF900895B6
:1007B00093FB882780F908951092A1031092A0035B
:1007C0000E94A2060E94500181E00E94D5021F9261
:1007D0008F9382E992E09F938F9384EB93E09F93B2
:1007E0008F930E94970E0F900F900F900F900F9085
:1007F0000F90C0E004EB13E008C0EC2FF0E0EC54E5
:10080000FC4F80810E94B008CF5FF801019000206A
:10081000E9F73197E45BF3408C2F90E08E179F0748
:1008200060F38091B3031F928F9384EA92E09F93C9
:100830008F9384EB93E09F938F930E94970E0F907A
:100840000F900F900F900F900F90C0E004EB13E00B
:1008500008C0EC2FF0E0EC54FC4F80810E94B008FF
:10086000CF5FF80101900020E9F73197E45BF34096
:100870008C2F90E08E179F0760F38091B30388233D
:1008800009F430C1FF24F3940F2EF4EB4F2EF2E065
:100890005F2EF02DC4EBD3E00F2EF0EC6F2EF2E0C4
:1008A0007F2EF02D0F2EF3EF8F2EF2E09F2EF02DE6
:1008B0000F2EF9E0AF2EF3E0BF2EF02D0F2EF0E358
:1008C000CF2EF3E0DF2EF02D0F2D10E01F92FF92C0
:1008D0005F924F92DF93CF930E94970E0F900F90ED
:1008E0000F900F900F900F90E12C08C0EE2DF0E0CC
:1008F000EC54FC4F80810E94B008E394FE0101900B
:100900000020E9F73197E45BF3408E2D90E08E17DD
:100910009F0760F301501109F801EE0FFF1FEE0F62
:10092000FF1FEE0FFF1FE05AFC4F87811F928F932E
:1009300086811F928F9385811F928F9384811F924E
:100940008F9383811F928F9382811F928F938181D6
:100950001F928F9380811F928F937F926F92DF936C
:10096000CF930E94970E8DB79EB744960FB6F8941A
:100970009EBF0FBE8DBFE12C08C0EE2DF0E0EC5401
:10098000FC4F80810E94B008E394FE01019000209A
:10099000E9F73197E45BF3408E2D90E08E179F07C7
:1009A00060F3F801EE0FFF1FEE0FFF1FEE0FFF1FAA
:1009B000E05AFC4F80811F928F939F928F92DF931A
:1009C000CF930E94970E0F900F900F900F900F9063
:1009D0000F90E12C08C0EE2DF0E0EC54FC4F80812C
:1009E0000E94B008E394FE0101900020E9F73197DE
:1009F000E45BF3408E2D90E08E179F0760F3F801C3
:100A0000EE0FFF1FEE0FFF1FEE0FFF1FE05AFC4F10
:100A100081811F928F9382811F928F9383811F9276
:100A20008F9384811F928F9385811F928F938681EC
:100A30001F928F93BF92AF92DF93CF930E94970E36
:100A40008DB79EB740960FB6F8949EBF0FBE8DBF70
:100A5000E12C08C0EE2DF0E0EC54FC4F80810E94A8
:100A6000B008E394FE0101900020E9F73197E45BC0
:100A7000F3408E2D90E08E179F0760F3F801EE0F84
:100A8000FF1FEE0FFF1FEE0FFF1FE05AFC4F878185
:100A90001F928F93DF92CF92DF93CF930E94970E96
:100AA0000F900F900F900F900F900F9010E008C0D4
:100AB000E12FF0E0EC54FC4F80810E94B0081F5FF2
:100AC000FE0101900020E9F73197E45BF340812FAC
:100AD00090E08E179F0760F3F3948091B3038F1516
:100AE00008F0F2CE0F2EFEE3EF2EF3E0FF2EF02DF6
:100AF00004EB13E00F2EF6E4CF2EF3E0DF2EF02D03
:100B000078940E948A0660E080E00E9465038FEF7F
:100B10009FE027E2815090402040E1F700C00000B4
:100B20008091B303882309F487C0BB24B3944B2D71
:100B300064EF73E081E00E949603E4EFF3E08180CC
:100B4000912C982C88248081882AC4010E94D80383
:100B5000811102C0CBE201C0CDE28FE098229694D1
:100B6000879496948794969487949694879491E02A
:100B7000B91209C063E089EB0E946E0663E084E16C
:100B80000E946E061AC023E0B2120AC063E08AEB2C
:100B90000E946E0663E084E10E946E06D1E01BC0F5
:100BA00085E0B8120AC063E08BEB0E946E0663E03A
:100BB00084E10E946E06D1E00EC08B2D8B7F8230C7
:100BC00019F094E0B91206C062E085E20E946E0658
:100BD000D2E001C0D1E09F928F921F92CF931F92DB
:100BE000BF92FF92EF921F930F930E94970E8DB7C3
:100BF0009EB70A960FB6F8949EBF0FBE8DBFC0E099
:100C000009C0EC2FF0E0EC54FC4F6D2F80810E9466
:100C1000E806CF5FF80101900020E9F73197E45B27
:100C2000F3408C2F90E08E179F0758F3B394809178
:100C3000B3038B1508F07BCF6091A0037091A103E3
:100C40006255710980E090E00E94B8082FE135E814
:100C50004BE950E40E94460920E030E048E450E4CB
:100C60000E94460960935C0370935D0380935E036A
:100C700090935F030E947501D0915C03B0905D0377
:100C800090905E0380905F030E94BC01C82F0E9479
:100C9000B9018F929F92BF92DF931F92CF9390E002
:100CA00003969F938F93DF92CF921F930F930E948F
:100CB000970EC8010E9442089FEF2BE782E99150EE
:100CC00020408040E1F700C000008DB79EB70C9631
:100CD0000FB6F8949EBF0FBE8DBF12CF9FEF9AB98B
:100CE0008BB92A9860FD289A61FD299A85B18C7F7D
:100CF00085B91BB81AB808959FEF9AB98BB92A9A8B
:100D000060FD289A61FD299A85B18C7F85B91BB851
:100D10001AB80895CF93DF93D8EB63E08D2F0E942C
:100D20006E0663E083E10E946E06CDE363E080E03F
:100D30000E947C06C150D1F7DF5FDC3B71F7DF9189
:100D4000CF9108958FEF8AB98BB987E084B985B9BF
:100D500094E095B985B995B985B915B863E082EE87
:100D60000E946E0663E089EA0E946E0663E084EAF0
:100D70000E946E0663E081EA0E946E0663E08FEADD
:100D80000E946E060E948A0663E088EB0E946E064F
:100D900063E083E10E946E0663E08FED0E946E06C1
:100DA0000895FF920F931F93CF93DF93F62EEC01DC
:100DB0008C010A5F1F4F6F2D89910E947C06C0171E
:100DC000D107C9F7DF91CF911F910F91FF9008953F
:100DD00090E0FC01B097EB35F10508F052C1EC5CF6
:100DE000FF4F0C94300D80E091E00E94D1060895F1
:100DF00086E091E00E94D10608958CE091E00E9487
:100E0000D106089582E191E00E94D106089588E11B
:100E100091E00E94D10608958EE191E00E94D106F2
:100E2000089584E291E00E94D10608958AE291E05B
:100E30000E94D106089580E391E00E94D1060895B2
:100E400086E391E00E94D10608958CE391E00E9430
:100E5000D106089582E491E00E94D106089588E4C5
:100E600091E00E94D10608958EE491E00E94D1069F
:100E7000089584E591E00E94D10608958AE591E005
:100E80000E94D106089580E691E00E94D10608955F
:100E900086E691E00E94D10608958CE691E00E94DA
:100EA000D106089582E791E00E94D106089588E76F
:100EB00091E00E94D10608958EE791E00E94D1064C
:100EC000089584E891E00E94D10608958AE891E0AF
:100ED0000E94D106089580E991E00E94D10608950C
:100EE00086E991E00E94D10608958CE991E00E9484
:100EF000D106089582EA91E00E94D106089588EA19
:100F000091E00E94D10608958EEA91E00E94D106F8
:100F1000089584EB91E00E94D10608958AEB91E058
:100F20000E94D106089580EC91E00E94D1060895B8
:100F300086EC91E00E94D10608958CEC91E00E942D
:100F4000D106089582ED91E00E94D106089588EDC2
:100F500091E00E94D10608958EED91E00E94D106A5
:100F6000089584EE91E00E94D10608958AEE91E002
:100F70000E94D106089580EF91E00E94D106089565
:100F800086EF91E00E94D10608958CEF91E00E94D7
:100F9000D106089582E092E00E94D106089588E08B
:100FA00092E00E94D10608958EE092E00E94D10660
:100FB000089584E192E00E94D10608958AE192E0CA
:100FC0000E94D106089580E292E00E94D106089521
:100FD00086E292E00E94D10608958CE292E00E949F
:100FE000D106089582E392E00E94D106089588E335
:100FF00092E00E94D10608958EE392E00E94D1060D
:10100000089584E492E00E94D10608958AE492E073
:101010000E94D106089580E592E00E94D1060895CD
:1010200086E592E00E94D10608958CE592E00E9448
:10103000D106089582E692E00E94D106089588E6DE
:1010400092E00E94D10608958EE692E00E94D106B9
:10105000089584E792E00E94D10608958AE792E01D
:101060000E94D106089580E892E00E94D10608957A
:1010700086E892E00E94D10608958CE892E00E94F2
:10108000D1060895DF92EF92FF920F931F93CF93B3
:10109000DF937C01C0E0D2E0DD24D3944CC0C111C9
:1010A00009C063E088EB0E946E0663E084E10E9461
:1010B0006E0616C0C43149F463E089EB0E946E06E7
:1010C00063E084E10E946E0616C0C83249F463E012
:1010D0008AEB0E946E0663E084E10E946E060FC0F8
:1010E000CC3349F463E08BEB0E946E0663E084E14D
:1010F0000E946E0608C086EF8C0F8A3070F082EE78
:101100008C0F8A3060F08EEC8C0F8A3050F08AEBB6
:101110008C0F8A3040F06D2D07C06D2F05C06D2FEC
:1011200003C06D2F01C06D2FF701E00FF11F80810B
:101130000E94E806CF5F0C2F10E0F701019000201D
:10114000E9F73197EE19FF090E171F0708F4A7CF2B
:10115000DF91CF911F910F91FF90EF90DF90089555
:10116000E0ECF0E0908195FFFDCF8093C6000895FC
:10117000E89409C097FB3EF4909580957095619531
:101180007F4F8F4F9F4F9923A9F0F92F96E9BB27E7
:101190009395F695879577956795B795F111F8CF63
:1011A000FAF4BB0F11F460FF1BC06F5F7F4F8F4FCE
:1011B0009F4F16C0882311F096E911C0772321F0C4
:1011C0009EE8872F762F05C0662371F096E8862F5C
:1011D00070E060E02AF09A95660F771F881FDAF7B3
:1011E000880F9695879597F9089597F99F6780E8F6
:1011F00070E060E008959FEF80EC089500240A9469
:101200001616170618060906089500240A941216E1
:101210001306140605060895092E0394000C11F414
:10122000882352F0BB0F40F4BF2B11F460FF04C0C1
:101230006F5F7F4F8F4F9F4F089557FD9058440F1A
:10124000551F59F05F3F71F04795880F97FB991F25
:1012500061F09F3F79F087950895121613061406E2
:10126000551FF2CF4695F1DF08C01616170618066F
:10127000991FF1CF86957105610508940895E8944A
:10128000BB2766277727CB0197F908950E94590954
:101290000C940C090E94FE0838F00E94050920F009
:1012A000952311F00C94F5080C94FB0811240C9470
:1012B00040090E941D0970F3959FC1F3950F50E0FE
:1012C000551F629FF001729FBB27F00DB11D639FF8
:1012D000AA27F00DB11DAA1F649F6627B00DA11D9E
:1012E000661F829F2227B00DA11D621F739FB00D44
:1012F000A11D621F839FA00D611D221F749F3327B4
:10130000A00D611D231F849F600D211D822F762F4C
:101310006A2F11249F5750409AF0F1F088234AF029
:10132000EE0FFF1FBB1F661F771F881F9150504095
:10133000A9F79E3F510580F00C94F5080C944009E4
:101340005F3FE4F3983ED4F3869577956795B7951C
:10135000F795E7959F5FC1F7FE2B880F911D969536
:10136000879597F90895A0E1B0E0E9EBF9E00C94D6
:10137000360D7C011B016A01FC01178216828381F4
:1013800081FF44C39E012F5F3F4F3901F7019381D5
:10139000F10193FD859193FF81911F01882309F449
:1013A00031C3853239F493FD859193FF81911F01FB
:1013B000853239F4B70190E00E945B0E5601650159
:1013C000E5CF10E0512C912CFFE1F915D8F08B32CC
:1013D00079F038F4803279F08332A1F4F92DF0619C
:1013E0002EC08D3261F0803369F4292D21602DC02B
:1013F000392D3260932E892D8460982E2AC0E92DD4
:10140000E86015C097FC2DC020ED280F2A3088F425
:1014100096FE06C03AE0139F200D1124122F19C02A
:101420008AE0589E200D1124522EE92DE0629E2E56
:1014300010C08E3231F496FCE5C2F92DF0649F2E77
:1014400008C08C3621F4292D2068922E02C08836DF
:1014500041F4F10193FD859193FF81911F01811169
:10146000B3CF9BEB980F933020F4992D9061805E61
:1014700007C09BE9980F933008F066C1992D9F7EB5
:1014800096FF16E09F73992E853619F49064992E75
:1014900008C0863621F4392F3068932E02C011110E
:1014A000115097FE07C01C3350F444244394410E5E
:1014B00027E00BC0183038F027E017E005C027E020
:1014C0009CE3492E02C0212F412C560184E0A80E36
:1014D000B11CF6016081718182819381042DA30189
:1014E0000E946D0D6C01F981FC87F0FF02C0F3FFD3
:1014F00006C091FC06C092FE06C000E205C00DE2E7
:1015000003C00BE201C000E08C858C7019F0011162
:101510005AC29BC297FE10C04C0CFC85F4FF04C05D
:101520008A81813309F44A94141474F528E024154F
:1015300078F588E0482E2CC096FC2AC0812F90E0D8
:101540008C159D059CF03CEFC3163FEFD30674F05D
:10155000892D8068982E0AC0E2E0F0E0EC0FFD1FB4
:10156000E10FF11D8081803319F411501111F4CF76
:1015700097FE0EC044244394410E812F90E0C8167C
:10158000D9062CF41C1904C04424439401C010E073
:1015900097FE06C01C141D0434F4C601019605C054
:1015A00085E090E002C081E090E0011101961123F6
:1015B00031F0212F30E02F5F3F4F820F931F252DF9
:1015C00030E08217930714F4581A01C0512C892D6A
:1015D000897049F4552039F0B70180E290E00E940B
:1015E0005B0E5A94F7CF002329F0B701802F90E0CB
:1015F0000E945B0E93FC09C0552039F0B70180E3CF
:1016000090E00E945B0E5A94F7CF97FE4CC04601C3
:10161000D7FE02C0812C912CC60188199909F301CB
:10162000E80FF91FFE87ED87960124193109388BE1
:101630002F87012F10E01195019511093FEF8316B7
:10164000930629F4B7018EE290E00E945B0EC81465
:10165000D9044CF08F8598898815990524F4ED8577
:10166000FE85818101C080E3F1E08F1A91082D850C
:101670003E852F5F3F4F3E872D87801691062CF0C9
:10168000B70190E00E945B0ED9CFC814D90441F491
:101690009A81963320F4953319F43C8534FF81E325
:1016A000B70190E04EC08A81813319F09C859F7EFE
:1016B0009C87B70190E00E945B0E111105C094FC5D
:1016C00018C085E690E017C0B7018EE290E00E9456
:1016D0005B0E1E5F82E001E0080FF301E80FF11DD1
:1016E0008081B70190E00E945B0E802F0113F3CF41
:1016F000E6CF85E490E0B7010E945B0ED7FC06C000
:10170000C114D10441F4EC85E4FF05C0D194C19427
:10171000D1088DE201C08BE2B70190E00E945B0E20
:1017200080E32AE0C216D1042CF08F5FFAE0CF1AD2
:10173000D108F7CFB70190E00E945B0EB701C60158
:10174000C0960E945B0E54C1833631F0833779F026
:10175000833509F056C020C0560132E0A30EB11CFB
:10176000F6018081898301E010E0630112C0560117
:10177000F2E0AF0EB11CF601C080D18096FE03C02E
:10178000612F70E002C06FEF7FEFC6010E94500E24
:101790008C01F92DFF7714C0560122E0A20EB11C76
:1017A000F601C080D18096FE03C0612F70E002C0B8
:1017B0006FEF7FEFC6010E94450E8C01F92DF06896
:1017C0009F2EF3FD1AC0852D90E008171907A8F485
:1017D000B70180E290E00E945B0E5A94F4CFF601CC
:1017E00097FC859197FE81916F01B70190E00E946F
:1017F0005B0E51105A94015011090115110579F72A
:10180000F7C0843611F0893661F5560197FE09C09C
:1018100024E0A20EB11CF601608171818281938166
:101820000AC0F2E0AF0EB11CF60160817181072E93
:10183000000C880B990BF92DFF769F2E97FF09C09E
:1018400090958095709561957F4F8F4F9F4FF06871
:101850009F2E2AE030E0A3010E94B90EC82EC618C0
:101860003FC0092D853721F40F7E2AE030E01DC0EE
:10187000097F8F3691F018F4883559F0C3C080374E
:1018800019F0883711F0BEC0006104FF09C0046080
:1018900007C094FE08C0066006C028E030E005C01E
:1018A00020E130E002C020E132E0560107FF09C02C
:1018B00084E0A80EB11CF601608171818281938160
:1018C00008C0F2E0AF0EB11CF6016081718180E0CA
:1018D00090E0A3010E94B90EC82EC6180F77902E73
:1018E00096FE0BC0092D0E7FC11650F494FE0AC05F
:1018F00092FC08C0092D0E7E05C0DC2C092D03C00A
:10190000DC2C01C0D12E04FF0DC0FE01EC0DF11D39
:101910008081803311F4097E09C002FF06C0D39490
:10192000D39404C0802F867809F0D39403FD11C0AE
:1019300000FF06C01C2DD51480F4150D1D190DC017
:10194000D51458F4B70180E290E00E945B0ED39466
:10195000F7CFD51410F45D1801C0512C04FF10C04E
:10196000B70180E390E00E945B0E02FF17C001FD0B
:1019700003C088E790E002C088E590E0B7010CC0A2
:10198000802F867859F001FF02C08BE201C080E20F
:1019900007FD8DE2B70190E00E945B0EC11638F49E
:1019A000B70180E390E00E945B0E1150F7CFCA941C
:1019B000F301EC0DF11D8081B70190E00E945B0EF8
:1019C000C110F5CF15C0F4E0F51560F584E0581AA4
:1019D00093FE1FC0011127C02C8523FF2AC00EE1F2
:1019E00011E0392D3071932EF8018491811124C0BA
:1019F000552009F4E4CCB70180E290E00E945B0E30
:101A00005A94F6CFF7018681978126C08FEF9FEF1A
:101A100023C0B70180E290E00E945B0E5A945110FF
:101A2000F8CFD8CF512CB701802F90E00E945B0EE9
:101A3000D3CF02E211E0D5CF91108052B70190E0F0
:101A40000E945B0E0F5F1F4FCFCF23E0251510F4D0
:101A500083E0BDCF512CC0CF6096E2E10C94520DD3
:101A6000EE0FFF1F0590F491E02D09942F923F9205
:101A70004F925F926F927F928F929F92AF92BF929E
:101A8000CF92DF92EF92FF920F931F93CF93DF934A
:101A9000CDB7DEB7CA1BDB0B0FB6F894DEBF0FBEA7
:101AA000CDBF09942A88398848885F846E847D84F4
:101AB0008C849B84AA84B984C884DF80EE80FD80F6
:101AC0000C811B81AA81B981CE0FD11D0FB6F8946C
:101AD000DEBF0FBECDBFED010895283008F027E02E
:101AE0003327DA01990F311D87FD9160009661055A
:101AF000710539F432602E5F3D9330E32A95E1F7AA
:101B000008959F3F30F080387105610509F03C5F12
:101B10003C5F3D93913008F08068911DDF93CF9337
:101B20001F930F93FF92EF92192F987F9695E92FAD
:101B300096959695E90FFF27E058FE4F9927332792
:101B4000EE24FF24A701E70105900894079428F4E8
:101B5000360FE71EF81E491F511D660F771F881F9D
:101B6000991F0694A1F70590079428F4E70EF81E34
:101B7000491F561FC11D770F881F991F661F0694A6
:101B8000A1F70590079428F4F80E491F561FC71FA8
:101B9000D11D880F991F661F771F0694A1F7059026
:101BA000079420F4490F561FC71FD81F990F661FAF
:101BB000771F881F0694A9F784911095177041F03C
:101BC000D695C79557954795F794E7941A95C1F719
:101BD000E6E2F1E068941590159135916591959143
:101BE00005907FE27395E118F10A430B560BC90B80
:101BF000D009C0F7E10CF11E431F561FC91FD01DAD
:101C00007EF4703311F48A95E6CFE894015030F0F9
:101C1000080F0AF40027021708F4202F2395022F3B
:101C20007A3328F079E37D932A95E9F710C07D9304
:101C30002A9589F606949795679537951795179481
:101C4000E118F10A430B560BC90BD00998F0239504
:101C50007E9173957A3308F070E37C932013B8F784
:101C60007E9170617D9330F0839571E37D9370E395
:101C70002A95E1F71124EF90FF900F911F91CF91DA
:101C8000DF91992787FD90950895FC01059061509B
:101C900070400110D8F7809590958E0F9F1F089582
:101CA000FC016150704001900110D8F7809590952B
:101CB0008E0F9F1F08950F931F93CF93DF93FB0108
:101CC000238121FD03C08FEF9FEF2CC022FF16C0A0
:101CD00046815781248135814217530744F4A081FE
:101CE000B1819D012F5F3F4F318320838C932681EB
:101CF00037812F5F3F4F3783268314C08B01EC0160
:101D0000FB010084F185E02D0995892BE1F6D801CE
:101D100016968D919C911797019617969C938E938A
:101D20001697CE01DF91CF911F910F910895AEE0EC
:101D3000B0E0EDE9FEE00C94440D0D891E8986E0CB
:101D40008C831A8309838FEF9FE79E838D83AE0177
:101D5000475E5F4F6F89788DCE0101960E94B3096F
:101D6000EF81F885E00FF11F10822E96E4E00C94CD
:101D7000600DFA01AA27283051F1203181F1E89451
:101D80006F936E7F6E5F7F4F8F4F9F4FAF4FB1E06E
:101D90003ED0B4E03CD0670F781F891F9A1FA11D69
:101DA000680F791F8A1F911DA11D6A0F711D811D6A
:101DB000911DA11D20D009F468943F912AE0269F2F
:101DC00011243019305D3193DEF6CF010895462F8E
:101DD0004770405D4193B3E00FD0C9F7F6CF462F6F
:101DE0004F70405D4A3318F0495D31FD40524193D8
:101DF00002D0A9F7EACFB4E0A69597958795779595
:101E00006795BA95C9F700976105710508959B011B
:101E1000AC010A2E06945795479537952795BA95A4
:101E2000C9F7620F731F841F951FA01D0895F894B2
:021E3000FFCFE2
:101E32003E4141413E0000427F4000004261514923
:101E420046002141454B31001814127F10002745EE
:101E5200454539003C4A49493000010179050300F2
:101E6200364949493600064949291E00001414140E
:101E720000007C1211127C007F49494936003E4124
:101E8200414122007F4141221C007F4949494900CA
:101E92007F09090909003E41415132007F080808C3
:101EA2007F0000417F410000204040403F007F080A
:101EB200142241007F40404040007F0204027F0024
:101EC2007F0408107F003E4141413E007F0909091D
:101ED20006003E4151613E007F091929460026490C
:101EE2004949320001017F0101003F4040403F006B
:101EF2001F2040201F007F2010207F006314081441
:101F020063000304780403006151494543002054EF
:101F1200545478007F4844443800384444444400D0
:101F2200384444487F00385454541800087E09024B
:101F32000000085454543C007F1008087000000050
:101F42007A0000000040403D00007F10284400005D
:101F520000007F0000007804780478007C08040404
:101F620078003844444438007C14141408000814DF
:101F720014147C007C0804040800485454542400BF
:101F8200043F444020003C4040207C001C20402074
:101F92001C003C4030403C004428102844000C50B7
:101FA20050503C004464544C440000004000000087
:101FB20000000000000000080808000000081C08DB
:101FC2000000496E6974205374617475733A202558
:101FD200640D0A0044657620636F756E743A20259D
:101FE200640D0A004465766963652025640D0A0064
:101FF200524F4D205241573A202530325820253039
:10200200325820253032582025303258202530329F
:102012005820253032582025303258202530325869
:102022000D0A0046616D696C7920434F44453A20A0
:102032003078253032580D0A00524F4D20434F441C
:10204200453A203078253032582530325825303202
:10205200582530325825303258253032580D0A0072
:102062004352433A203078253032580D0A00256415
:102072003D2563256400543D256420483D256420A8
:0A2082004144433D252E660D0A007F
:00000001FF
