S00F00004D4731323233322E7372656387
S11300000C9410010C942D010C942D010C94650595
S11300100C942D010C942D010C942D010C942D01A4
S11300200C942D010C942D010C942D010C942D0194
S11300300C942D010C942D010C9403050C9435059E
S11300400C942D010C942D010C942D010C942D0174
S11300500C942D010C942F010C942D010C942D0162
S11300600C942D010C942D01650473047304730422
S113007073047304730473047304730473046F04C8
S113008073046A046004730425032A032F033403EE
S113009039033E03430348034D03520373047304BB
S11300A0730457037304730473045C0361036603EA
S11300B06B03700375037A037F03840389038E0340
S11300C0930398039D03A203A703AC03B103B603F0
S11300D0BB03C003C503CA03CF03D403D90373040A
S11300E073047304730473047304DE03E303E80307
S11300F0ED03F203F703FC03010406040B041004EC
S113010015041A041F04240429042E043304380497
S11301103D04420447044C04510456045B046E61DC
S11301206E00696E660000407A10F35A00A0724EA9
S113013018090010A5D4E80000E87648170000E488
S11301400B54020000CA9A3B000000E1F5050000D0
S113015080969800000040420F000000A086010035
S11301600000102700000000E80300000000640005
S1130170000000000A000000000001000000000070
S11301802C76D888DC674F0823DFC1DFAE59E1B194
S1130190B796E5E3E453C63AE651997696E8E6C2A3
S11301A08426EB898C9B62ED407C6FFCEFBC9C9FAA
S11301B040F2BAA56FA5F490055A2AF75C936B6CCC
S11301C0F9676DC11BFCE0E40D47FEF520E6B500C0
S11301D0D0ED902E0300943577050080841E08002E
S11301E000204E0A000000C80C333333330F986EDE
S11301F012831141EF8D2114893BE65516CFFEE69B
S1130200DB18D1844B381BF77C1D901DA4BBE42460
S1130210203284725E228100C9F124ECA1E53D27DD
S113022011241FBECFEFD8E0DEBFCDBF12E0A0E0A7
S1130230B1E0E8E9F8E102C005900D92AE3CB107E7
S1130240D9F723E0AEECB2E001C01D92A633B207A9
S1130250E1F70E94C9010C944A0C0C9400001F920F
S11302600F920FB60F9211242F938F939F93809127
S113027078008093CE02209179002093CF0290E001
S1130280922B9093E1028093E0029F918F912F91A2
S11302900F900FBE0F901F901895EAE7F0E0808151
S11302A087688083ECE7F0E080818364808308952D
S11302B0EAE7F0E0808180648083808186FDFDCF61
S11302C08091780090917900089527E030E080E0F3
S11302D061E070E0309BFECF90EA9A95F1F7309B95
S11302E008C0AB01022E02C0440F551F0A94E2F766
S11302F0842B3099FECF2150310960F708950F9374
S11303001F93CF93DF93E5EEF2E010821282389AC6
S113031040982FEF89EF90E0215080409040E1F722
S113032000C00000409A20EA2A95F1F7389885E049
S11303308A95F1F7000086B181708093EA028111F9
S11303401DC08FE391E00197F1F700C0000086B172
S113035081708093EA02882389F08FE391E001970A
S1130360F1F700C00000EF010AEE12E00E946501FF
S11303708993C017D107D1F7389A409ADF91CF916A
S11303801F910F9108958091E70208958091E502ED
S11303900895CF93DF9300D0CDB7DEB78FEF80936E
S11303A0DD021092E1021092E0020E94CB020E9450
S11303B04D0119820E94C1050F2EFBE96F2EF2E058
S11303C07F2EF02D0F2EFEEE8F2EF2E09F2EF02DBD
S11303D00F2EF9E0AF2EF1E0BF2EF02D0F2EF9ED28
S11303E0CF2EF2E0DF2EF02D0F2EF0EDEF2EF2E007
S11303F0FF2EF02D0F2EF1EB2F2EF2E03F2EF02DDD
S113040078940E94B3020E9458019093E102809371
S1130410E002BC016255710980E090E00E94EB05A6
S113042020E03DEA42E751E40E9479066093D90254
S11304307093DA028093DB029093DC020E947F01C6
S11304400091D9025090DA024090DB021091DC0254
S11304500E94C6018A830E94C3011F934F925F9238
S11304600F931F922A812F9390E003969F938F936B
S11304707F926F929F928F920E94CA0B60E0C40198
S11304800E947404789400E011E00FB6F894DEBF83
S11304900FBECDBFF80181918F010E949C05A0166B
S11304A0B106C1F700ED12E0CE0101960E94AC0541
S11304B0F80181938F01EC15FD05B1F7F7018085F3
S11304C01F928F9387811F928F9386811F928F93A0
S11304D085811F928F9384811F928F9383811F92B2
S11304E08F9382811F928F9381811F928F9380813A
S11304F01F928F933F922F929F928F920E94CA0BCA
S113050061E0C4010E947404FFEF2BE782E9F1501B
S113051020408040E1F700C000000FB6F894DEBF31
S11305200FBECDBF6DCFF8949FEF9AB98BB92A98BF
S113053060FD289A61FD299A85B18C7F85B91BB825
S11305401AB878940895F8949FEF9AB98BB92A9AB7
S113055060FD289A61FD299A85B18C7F85B91BB805
S11305601AB878940895CF93DF93D8EB63E08D2F76
S11305700E94930263E083E10E949302CDE363E06F
S113058080E00E94A302C150D1F7DF5FDC3B71F72A
S1130590DF91CF9108958AB18FEF8AB99BB18BB95E
S11305A084B1876084B985B1876085B92A9A85B199
S11305B0876085B92A9A85B1876085B985B185B97F
S11305C063E082EE0E94930263E089EA0E94930250
S11305D063E084EA0E94930263E081EA0E9493024A
S11305E063E08FEA0E9493020E94B30263E088EB07
S11305F00E94930263E083E10E94930263E08FED23
S11306000E9493020895FF920F931F93CF93DF9359
S1130610F62EEC018C010A5F1F4F6F2D89910E9409
S1130620A302C017D107C9F7DF91CF911F910F9192
S1130630FF90089590E0FC01B097EB35F10508F0C8
S113064052C1EC5CFF4F0C94630A89E091E00E9474
S1130650030308958FE091E00E940303089585E168
S113066091E00E94030308958BE191E00E9403034B
S1130670089581E291E00E940303089587E291E0E6
S11306800E94030308958DE291E00E9403030895FC
S113069083E391E00E940303089589E391E00E94BB
S11306A0030308958FE391E00E940303089585E412
S11306B091E00E94030308958BE491E00E940303F8
S11306C0089581E591E00E940303089587E591E090
S11306D00E94030308958DE591E00E9403030895A9
S11306E083E691E00E940303089589E691E00E9465
S11306F0030308958FE691E00E940303089585E7BC
S113070091E00E94030308958BE791E00E940303A4
S1130710089581E891E00E940303089587E891E039
S11307200E94030308958DE891E00E940303089555
S113073083E991E00E940303089589E991E00E940E
S1130740030308958FE991E00E940303089585EA65
S113075091E00E94030308958BEA91E00E94030351
S1130760089581EB91E00E940303089587EB91E0E3
S11307700E94030308958DEB91E00E940303089502
S113078083EC91E00E940303089589EC91E00E94B8
S1130790030308958FEC91E00E940303089585ED0F
S11307A091E00E94030308958BED91E00E940303FE
S11307B0089581EE91E00E940303089587EE91E08D
S11307C00E94030308958DEE91E00E9403030895AF
S11307D083EF91E00E940303089589EF91E00E9462
S11307E0030308958FEF91E00E940303089585E0C9
S11307F092E00E94030308958BE092E00E940303B9
S1130800089581E192E00E940303089587E192E054
S11308100E94030308958DE192E00E94030308956A
S113082083E292E00E940303089589E292E00E9429
S1130830030308958FE292E00E940303089585E381
S113084092E00E94030308958BE392E00E94030365
S1130850089581E492E00E940303089587E492E0FE
S11308600E94030308958DE492E00E940303089517
S113087083E592E00E940303089589E592E00E94D3
S1130880030308958FE592E00E940303089585E62B
S113089092E00E94030308958BE692E00E94030312
S11308A0089581E792E00E940303089587E792E0A8
S11308B00E94030308958DE792E00E9403030895C4
S11308C083E892E00E940303089589E892E00E947D
S11308D0030308958FE892E00E940303089585E9D5
S11308E092E00E9403030895BF92CF92DF92EF92A9
S11308F0FF920F931F93CF93DF937C01D62FC0E019
S11309006894DD24D1F8BB24B394C12C65C0C11113
S11309100DC0D43008F0DC2D63E088EB8D0F0E940D
S1130920930263E084E10E94930224C0C43181F401
S11309308D2F90E0019604970CF0DC2D63E089EB99
S11309408D0F0E94930263E084E10E94930224C00D
S1130950C83281F48D2F90E0029604970CF0DC2DC0
S113096063E08AEB8D0F0E94930263E084E10E94AE
S1130970930216C0CC3381F48D2F90E00396049734
S11309800CF0DC2D63E08BEB8D0F0E94930263E08F
S113099084E10E94930208C086EF8C0F8A3070F0C5
S11309A082EE8C0F8A3060F08EEC8C0F8A3050F01F
S11309B08AEB8C0F8A3040F06B2D07C06D2D05C07B
S11309C06D2D03C06D2D01C06D2DF701E00FF11FDA
S11309D080810E941A03CF5F0C2F10E0F701019071
S11309E00020E9F73197EE19FF090E171F0708F4E5
S11309F08ECFDF91CF911F910F91FF90EF90DF90F9
S1130A00CF90BF9008951F920F920FB60F921124AA
S1130A102F933F938F939F9395B12091E30230914D
S1130A20E402822F81708295807F9F7E892B85B915
S1130A308091E3029091E402969587959058909363
S1130A40E4028093E3028091DF02882329F08091FD
S1130A50DF0281508093DF029F918F913F912F910C
S1130A600F900FBE0F901F9018951F920F920FB604
S1130A700F9211248F93EF93FF931D9B05C08091D8
S1130A80E20280688093E2028091DE0281508093CA
S1130A90DE0281110DC0EEE6F0E080818B7F808361
S1130AA0AA9AD89AEBE6F0E080818062808305C040
S1130AB08091E20286958093E202FF91EF918F91FB
S1130AC00F900FBE0F901F9018951F920F920FB6A4
S1130AD00F9211242F938F939F93EF93FF93E8E644
S1130AE0F0E080818E7F808393B18091DD0223B119
S1130AF02093DD02892785FF15C089E08093DE02FB
S1130B001092E20286B5873620F486B5895988BDED
S1130B1003C086B5875688BDD89AEEE6F0E080819A
S1130B2084608083FF91EF919F918F912F910F901B
S1130B300FBE0F901F9018959091DF029111FCCF7A
S1130B4090E09A95880F991F9093E4028093E302B2
S1130B508AE08093DF020895FC018091DE028930EF
S1130B6068F49091DE029111FCCF8091E2028083BF
S1130B7089E08093DE02808190E008958FEF9FEFFB
S1130B8008958FEF9FEF9093E4028093E302109215
S1130B90E2021092DF0289E08093DE02249A259813
S1130BA02C9A1D9A8FEC87BDEEE6F0E0808182607E
S1130BB0808384B5826084BD85B5826085BDE8E6A6
S1130BC0F0E0808181608083EBE6F0E080818160E9
S1130BD0808378940895E89409C097FB3EF4909537
S1130BE08095709561957F4F8F4F9F4F9923A9F002
S1130BF0F92F96E9BB279395F69587957795679591
S1130C00B795F111F8CFFAF4BB0F11F460FF1BC0D4
S1130C106F5F7F4F8F4F9F4F16C0882311F096E967
S1130C2011C0772321F09EE8872F762F05C0662315
S1130C3071F096E8862F70E060E02AF09A95660FCE
S1130C40771F881FDAF7880F9695879597F9089587
S1130C5097F99F6780E870E060E008959FEF80EC6B
S1130C60089500240A94161617061806090608950E
S1130C7000240A9412161306140605060895092E74
S1130C800394000C11F4882352F0BB0F40F4BF2BE3
S1130C9011F460FF04C06F5F7F4F8F4F9F4F089523
S1130CA057FD9058440F551F59F05F3F71F0479519
S1130CB0880F97FB991F61F09F3F79F087950895FE
S1130CC0121613061406551FF2CF4695F1DF08C01D
S1130CD0161617061806991FF1CF8695710561053A
S1130CE008940895E894BB2766277727CB0197F9E2
S1130CF008950E948C060C943F060E94310638F039
S1130D000E94380620F0952311F00C9428060C94C8
S1130D102E0611240C9473060E94500670F3959FBE
S1130D20C1F3950F50E0551F629FF001729FBB27DE
S1130D30F00DB11D639FAA27F00DB11DAA1F649F7A
S1130D406627B00DA11D661F829F2227B00DA11D2D
S1130D50621F739FB00DA11D621F839FA00D611DB3
S1130D60221F749F3327A00D611D231F849F600DD4
S1130D70211D822F762F6A2F11249F5750409AF0FD
S1130D80F1F088234AF0EE0FFF1FBB1F661F771F89
S1130D90881F91505040A9F79E3F510580F00C9454
S1130DA028060C9473065F3FE4F3983ED4F38695CB
S1130DB077956795B795F795E7959F5FC1F7FE2BF4
S1130DC0880F911D9695879597F90895A0E1B0E055
S1130DD0ECEEF6E00C94690A7C011B016A01FC014B
S1130DE017821682838181FF44C39E012F5F3F4F88
S1130DF03901F7019381F10193FD859193FF81916D
S1130E001F01882309F431C3853239F493FD859198
S1130E1093FF81911F01853239F4B70190E00E945C
S1130E208E0B56016501E5CF10E0512C912CFFE1AA
S1130E30F915D8F08B3279F038F4803279F08332B6
S1130E40A1F4F92DF0612EC08D3261F0803369F484
S1130E50292D21602DC0392D3260932E892D846077
S1130E60982E2AC0E92DE86015C097FC2DC020ED0E
S1130E70280F2A3088F496FE06C03AE0139F200D0E
S1130E801124122F19C08AE0589E200D1124522ECD
S1130E90E92DE0629E2E10C08E3231F496FCE5C23C
S1130EA0F92DF0649F2E08C08C3621F4292D20687A
S1130EB0922E02C0883641F4F10193FD859193FF8F
S1130EC081911F018111B3CF9BEB980F933020F4D4
S1130ED0992D9061805E07C09BE9980F933008F0CC
S1130EE066C1992D9F7E96FF16E09F73992E8536D5
S1130EF019F49064992E08C0863621F4392F30688D
S1130F00932E02C01111115097FE07C01C3350F4E8
S1130F1044244394410E27E00BC0183038F027E0F6
S1130F2017E005C027E09CE3492E02C0212F412C85
S1130F30560184E0A80EB11CF601608171818281A2
S1130F409381042DA3010E94A00A6C01F981FC87FE
S1130F50F0FF02C0F3FF06C091FC06C092FE06C07B
S1130F6000E205C00DE203C00BE201C000E08C8585
S1130F708C7019F001115AC29BC297FE10C04C0C20
S1130F80FC85F4FF04C08A81813309F44A94141463
S1130F9074F528E0241578F588E0482E2CC096FCDA
S1130FA02AC0812F90E08C159D059CF03CEFC31660
S1130FB03FEFD30674F0892D8068982E0AC0E2E0D2
S1130FC0F0E0EC0FFD1FE10FF11D8081803319F477
S1130FD011501111F4CF97FE0EC044244394410ED6
S1130FE0812F90E0C816D9062CF41C1904C044249F
S1130FF0439401C010E097FE06C01C141D0434F491
S1131000C601019605C085E090E002C081E090E051
S113101001110196112331F0212F30E02F5F3F4F52
S1131020820F931F252D30E08217930714F4581A6A
S113103001C0512C892D897049F4552039F0B7012C
S113104080E290E00E948E0B5A94F7CF002329F09F
S1131050B701802F90E00E948E0B93FC09C05520AD
S113106039F0B70180E390E00E948E0B5A94F7CFD9
S113107097FE4CC04601D7FE02C0812C912CC601BC
S113108088199909F301E80FF91FFE87ED87960186
S113109024193109388B2F87012F10E01195019500
S11310A011093FEF8316930629F4B7018EE290E00D
S11310B00E948E0BC814D9044CF08F85988988152A
S11310C0990524F4ED85FE85818101C080E3F1E07A
S11310D08F1A91082D853E852F5F3F4F3E872D87C0
S11310E0801691062CF0B70190E00E948E0BD9CFA8
S11310F0C814D90441F49A81963320F4953319F431
S11311003C8534FF81E3B70190E04EC08A8181338E
S113111019F09C859F7E9C87B70190E00E948E0BFE
S1131120111105C094FC18C085E690E017C0B70102
S11311308EE290E00E948E0B1E5F82E001E0080FB9
S1131140F301E80FF11D8081B70190E00E948E0B3E
S1131150802F0113F3CFE6CF85E490E0B7010E941E
S11311608E0BD7FC06C0C114D10441F4EC85E4FF16
S113117005C0D194C194D1088DE201C08BE2B701BE
S113118090E00E948E0B80E32AE0C216D1042CF07A
S11311908F5FFAE0CF1AD108F7CFB70190E00E9431
S11311A08E0BB701C601C0960E948E0B54C18336C4
S11311B031F0833779F0833509F056C020C05601E9
S11311C032E0A30EB11CF6018081898301E010E0B6
S11311D0630112C05601F2E0AF0EB11CF601C080EB
S11311E0D18096FE03C0612F70E002C06FEF7FEFE5
S11311F0C6010E94830B8C01F92DFF7714C05601A0
S113120022E0A20EB11CF601C080D18096FE03C07C
S1131210612F70E002C06FEF7FEFC6010E94780B70
S11312208C01F92DF0689F2EF3FD1AC0852D90E0F6
S113123008171907A8F4B70180E290E00E948E0B0A
S11312405A94F4CFF60197FC859197FE81916F0132
S1131250B70190E00E948E0B51105A94015011096D
S11312600115110579F7F7C0843611F0893661F557
S1131270560197FE09C024E0A20EB11CF60160815C
S11312807181828193810AC0F2E0AF0EB11CF60134
S113129060817181072E000C880B990BF92DFF7664
S11312A09F2E97FF09C090958095709561957F4F0B
S11312B08F4F9F4FF0689F2E2AE030E0A3010E94D9
S11312C0EC0BC82EC6183FC0092D853721F40F7EBC
S11312D02AE030E01DC0097F8F3691F018F488357C
S11312E059F0C3C0803719F0883711F0BEC00061CF
S11312F004FF09C0046007C094FE08C0066006C06D
S113130028E030E005C020E130E002C020E132E016
S1131310560107FF09C084E0A80EB11CF6016081E4
S113132071818281938108C0F2E0AF0EB11CF60195
S11313306081718180E090E0A3010E94EC0BC82ED3
S1131340C6180F77902E96FE0BC0092D0E7FC1167E
S113135050F494FE0AC092FC08C0092D0E7E05C00C
S1131360DC2C092D03C0DC2C01C0D12E04FF0DC0E0
S1131370FE01EC0DF11D8081803311F4097E09C05A
S113138002FF06C0D394D39404C0802F867809F05A
S1131390D39403FD11C000FF06C01C2DD51480F4A6
S11313A0150D1D190DC0D51458F4B70180E290E055
S11313B00E948E0BD394F7CFD51410F45D1801C09E
S11313C0512C04FF10C0B70180E390E00E948E0B03
S11313D002FF17C001FD03C088E790E002C088E562
S11313E090E0B7010CC0802F867859F001FF02C04D
S11313F08BE201C080E207FD8DE2B70190E00E941C
S11314008E0BC11638F4B70180E390E00E948E0B76
S11314101150F7CFCA94F301EC0DF11D8081B7018F
S113142090E00E948E0BC110F5CF15C0F4E0F515C5
S113143060F584E0581A93FE1FC0011127C02C8563
S113144023FF2AC00EE111E0392D3071932EF801EB
S11314508491811124C0552009F4E4CCB70180E2C1
S113146090E00E948E0B5A94F6CFF7018681978103
S113147026C08FEF9FEF23C0B70180E290E00E9467
S11314808E0B5A945110F8CFD8CF512CB701802F1E
S113149090E00E948E0BD3CF02E211E0D5CF9110E1
S11314A08052B70190E00E948E0B0F5F1F4FCFCF89
S11314B023E0251510F483E0BDCF512CC0CF6096F6
S11314C0E2E10C94850AEE0FFF1F0590F491E02DE4
S11314D009942F923F924F925F926F927F928F92D4
S11314E09F92AF92BF92CF92DF92EF92FF920F93AF
S11314F01F93CF93DF93CDB7DEB7CA1BDB0B0FB6B9
S1131500F894DEBF0FBECDBF09942A883988488875
S11315105F846E847D848C849B84AA84B984C8840B
S1131520DF80EE80FD800C811B81AA81B981CE0F02
S1131530D11D0FB6F894DEBF0FBECDBFED010895E7
S1131540283008F027E03327DA01990F311D87FD91
S1131550916000966105710539F432602E5F3D9308
S113156030E32A95E1F708959F3F30F08038710504
S1131570610509F03C5F3C5F3D93913008F0806861
S1131580911DDF93CF931F930F93FF92EF92192F27
S1131590987F9695E92F96959695E90FFF27E05841
S11315A0FE4F99273327EE24FF24A701E701059076
S11315B00894079428F4360FE71EF81E491F511D9E
S11315C0660F771F881F991F0694A1F7059007944B
S11315D028F4E70EF81E491F561FC11D770F881FF8
S11315E0991F661F0694A1F70590079428F4F80E36
S11315F0491F561FC71FD11D880F991F661F771FCC
S11316000694A1F70590079420F4490F561FC71FAD
S1131610D81F990F661F771F881F0694A9F7849116
S11316201095177041F0D695C79557954795F7943F
S1131630E7941A95C1F7E6E2F1E0689415901591E4
S113164035916591959105907FE27395E118F10AC2
S1131650430B560BC90BD009C0F7E10CF11E431F15
S1131660561FC91FD01D7EF4703311F48A95E6CF3E
S1131670E894015030F0080F0AF40027021708F428
S1131680202F2395022F7A3328F079E37D932A952E
S1131690E9F710C07D932A9589F606949795679586
S11316A0379517951794E118F10A430B560BC90B9C
S11316B0D00998F023957E9173957A3308F070E3FE
S11316C07C932013B8F77E9170617D9330F08395FD
S11316D071E37D9370E32A95E1F71124EF90FF9075
S11316E00F911F91CF91DF91992787FD90950895D0
S11316F0FC010590615070400110D8F780959095D9
S11317008E0F9F1F0895FC016150704001900110DD
S1131710D8F7809590958E0F9F1F08950F931F9370
S1131720CF93DF93FB01238121FD03C08FEF9FEF54
S11317302CC022FF16C0468157812481358142176F
S1131740530744F4A081B1819D012F5F3F4F318342
S113175020838C93268137812F5F3F4F37832683E5
S113176014C08B01EC01FB010084F185E02D099587
S1131770892BE1F6D80116968D919C9117970196C5
S113178017969C938E931697CE01DF91CF911F915C
S11317900F910895AEE0B0E0E0EDFBE00C94770A21
S11317A00D891E8986E08C831A8309838FEF9FE756
S11317B09E838D83AE01475E5F4F6F89788DCE0126
S11317C001960E94E606EF81F885E00FF11F108272
S11317D02E96E4E00C94930AFA01AA27283051F1DA
S11317E0203181F1E8946F936E7F6E5F7F4F8F4F4E
S11317F09F4FAF4FB1E03ED0B4E03CD0670F781FAD
S1131800891F9A1FA11D680F791F8A1F911DA11D91
S11318106A0F711D811D911DA11D20D009F46894CA
S11318203F912AE0269F11243019305D3193DEF672
S1131830CF010895462F4770405D4193B3E00FD028
S1131840C9F7F6CF462F4F70405D4A3318F0495D13
S113185031FD4052419302D0A9F7EACFB4E0A695F6
S11318609795879577956795BA95C9F70097610518
S1131870710508959B01AC010A2E0694579547956E
S113188037952795BA95C9F7620F731F841F951F63
S10B1890A01D0895F894FFCF98
S1131898FF01860000000000793E4141413E0000FE
S11318A8427F4000004261514946002141454B3185
S11318B8001814127F10002745454539003C4A4951
S11318C849300001017905030036494949360006C3
S11318D84949291E000014141400007C1211127CBA
S11318E8007F49494936003E41414122007F414138
S11318F8221C007F49494949007F09090909003E1A
S113190841415132007F0808087F0000417F4100AF
S113191800204040403F007F08142241007F40409F
S11319284040007F0204027F007F0408107F003ECD
S11319384141413E007F09090906003E4151613E8B
S1131948007F091929460026494949320001017FC7
S11319580101003F4040403F001F2040201F007FFE
S11319682010207F00631408146300030478040320
S1131978006151494543002054545478007F484439
S1131988443800384444444400384444487F0038C8
S11319985454541800087E09020000085454543C56
S11319A8007F100808700000007A00000000404022
S11319B83D00007F102844000000007F00000078EC
S11319C804780478007C08040478003844444438D3
S11319D8007C1414140800081414147C007C0804F3
S11319E8040800485454542400043F444020003C54
S11319F84040207C001C2040201C003C4030403CDF
S1131A08004428102844000C5050503C00446454AE
S1131A184C440000004000000000000000000000EA
S1131A28080808000000081C080000543D2564202C
S1131A3820483D2564204144433D252E66200D0A57
S1131A4800202578202578202578202578202578D9
S1111A58202578202578202578202578200068
S9030000FC
